:020000040800F2
:10000000000B0020C1010008972D0008C92200083C
:10001000952D0008190A0008B53D000800000000F1
:10002000000000000000000000000000892E000811
:10003000410A000800000000992D00088B2E0008DE
:10004000DB010008DB010008DB010008DB01000820
:10005000DB010008DB010008DB010008DB01000810
:10006000DB010008DB010008DB010008DB01000800
:10007000DB010008DB010008DB010008DB010008F0
:10008000DB010008DB010008DB010008DB010008E0
:10009000DB010008DB010008DB010008DB010008D0
:1000A000DB010008DB010008DB010008DB010008C0
:1000B000392F0008452F0008592F0008DB010008E0
:1000C000DB010008DB010008DB010008DB010008A0
:1000D000DB010008A93D0008DB010008DB01000886
:1000E000DB010008DB010008DB010008DB01000880
:1000F000DB010008DB010008DB010008DB01000870
:10010000DB010008DB010008DB010008DB0100085F
:10011000DB010008DB0100082D3000081138000861
:10012000DB010008DB010008DB010008DB0100083F
:10013000DB010008DB010008DB010008DB0100082F
:10014000DB010008DB010008DB010008DB0100081F
:10015000DB010008DB010008DB010008DB0100080F
:10016000DB010008DB010008DB010008DB010008FF
:10017000DB010008DB010008DB01000800000000D3
:10018000DB010008DB010008DB010008DB010008DF
:10019000DB010008DB010008DB010008DB010008CF
:1001A000DB010008DB010008DB010008DFF80CD0F0
:1001B00000F08CFB0048004741470008000B00207E
:1001C0000648804706480047FEE7FEE7FEE7FEE7F1
:1001D000FEE7FEE7FEE7FEE7FEE7FEE71D2F00086D
:1001E000AD0100082DE9F05F0546002092469B46D0
:1001F00088460646814640241BE02846414647463D
:10020000224600F094FA53465A46C01A914110D340
:1002100011461846224600F07BFA2D1A67EB0108BA
:100220004F4622460120002100F072FA17EB000928
:100230004E41201EA4F10104DFDC484631462A4627
:100240004346BDE8F09FD2B201E000F8012B491E01
:10025000FBD270470022F6E710B513460A46044663
:100260001946FFF7F0FF204610BD2DE9FE4F8046EE
:1002700081EA0300C00F0C46009021F0004123F0FA
:100280000045B8EB0200A94105D240462146904600
:100290001C460B46024623F00040104347D0270D72
:1002A000C7F30A00C3F30A510290401A0190402894
:1002B0006BDAC3F3130040F4801B0098924620B120
:1002C0000023D2EB030A63EB0B0B01985946C0F1F4
:1002D0004002504600F01CFA06460D46504659466C
:1002E000019A00F034FA10EB08006141002487EA1B
:1002F000115284EAE7731A4340D0009A62B3019A1C
:10030000012A4FEA075215DC001B61EB02014FF096
:10031000004202EA0752CDE90042001C41F580117B
:1003200032462B4600F06BFA03B0BDE8F08F404632
:100330002146F9E7001B61EB0201001C41F5801327
:1003400000185B412018A2F5001747EB030140EAB3
:10035000D570B6196D4111E06D084FEA360645EAD1
:10036000C0754FEA0752001B61EB0201001C41F50A
:10037000801149084FEA30000019514132462B469E
:1003800003B0BDE8F04F00F02BBA00980122400006
:100390000023D0EB020263EBE073009821464FEAA2
:1003A000E074B8EB000061EB0401E9E783F000437F
:1003B0005BE781F0004158E72DE9FE4F81EA030435
:1003C00004F0004421F0004100944FF0000B23F0B2
:1003D000004350EA01045ED052EA03045BD0C3F349
:1003E0000A54C1F30A552C44A4F2F3340194A0FB3F
:1003F0000254C1F3130141F48011C3F3130343F416
:10040000801301FB024400FB034E840A970A44EA6E
:10041000815447EA8357A4FB076802958D0A05FBC0
:1004200007854FEA932C04FB0C542705029D4FEAE5
:10043000065847EA1637B5EB08056EEB070C870E32
:10044000920E47EA811742EA8312A7FB0201B6EB3C
:100450000B0164EB00042B0D43EA0C335E1844EBF4
:100460001C50DA465146E7FB0201C5F313044FEA7C
:100470000B3343EA14534FEA0432019C43EA060368
:10048000A4F10C040294009CCDE900B400F0B7F98B
:1004900003B0BDE8F08F00200146F9E72DE9F04DEB
:1004A00081EA030404F0004B21F0004514464FF0AC
:1004B000000A23F0004150EA050220D054EA01026C
:1004C0001DD0C5F30A570246C5F31303C1F3130049
:1004D000C1F30A5640F4801543F48013A7EB0608D5
:1004E000101BD64608F2FD3873EB050002D308F165
:1004F000010801E092185B41B8F1000F03DA002017
:100500000146BDE8F08D00204FF480110646844678
:100510000EE0171B73EB050705D3121B63EB0503F6
:1005200006434CEA010C49084FEA300092185B413F
:1005300050EA0107EDD152EA030012D082EA04002A
:1005400083EA0501084305D0101BAB4106D2012206
:10055000002306E000224FF0004302E06FF00102AA
:1005600053101AEB06004CEB085110EB0A0041EB5C
:100570000B01BDE8F04D00F033B90EB5C10F80EAB4
:10058000E0700844CA07002140F233438DE80E00B2
:100590000A460B4600F033F903B000BD0EB540F239
:1005A000334102910021CDE900110A460B4600F0CB
:1005B00026F903B000BD70B5C1F30A5201F0004541
:1005C0000024C1F3130140F2FF3341F480119A4239
:1005D00001DA002070BD40F233439A42A2F2334266
:1005E00003DC524200F0A3F800E090402C43F1D02D
:1005F000404270BDC1F30A5210B5C1F3130140F27D
:10060000FF3341F480119A4201DA002010BD40F21C
:1006100033439A42A2F2334203DC524200F087F89D
:1006200010BD904010BD00F0004230F000400AD0F4
:10063000C10D01F56071C0F3160042EA0151C20814
:1006400040071143704700200146704730B5041E33
:1006500071F1000404DB4FF00044404264EB0101FF
:10066000141E73F1000405DB1C464FF00043524298
:1006700063EB04038B4208BF824230BD30B5041ED9
:1006800071F1000404DB4FF00044404264EB0101CF
:10069000141E73F1000405DB1C464FF00043524268
:1006A00063EB0403994208BF904230BD01F0004360
:1006B00030B421F0004150EA010206D00A0DA2F543
:1006C0006072C1F31301002A02DC30BC00207047C5
:1006D000440F44EAC104C100E01830BC00EBC25032
:1006E00000F047B830B50B46014600202022012417
:1006F00009E021FA02F59D4205D303FA02F5491BF0
:1007000004FA02F52844151EA2F10102F1DC30BD05
:10071000202A04DB203A00FA02F1002070479140C1
:10072000C2F1200320FA03F3194390407047202AB6
:1007300004DB203A21FA02F00021704721FA02F38B
:10074000D040C2F120029140084319467047202A48
:1007500006DBCB17203A41FA02F043EAE07306E0E9
:1007600041FA02F3D040C2F12002914008431946F9
:1007700070470029A8BF7047401C490008BF20F0FF
:100780000100704710B4B0FA80FC00FA0CF050EA97
:10079000010404BF10BC704749B1CCF1200421FA18
:1007A00004F411FA0CF118BF012121430843A3EB13
:1007B0000C01CB1D4FEA00614FEA102042BF002020
:1007C00010BC704700EBC35010440029A4BF10BCFC
:1007D0007047401C490008BF20F0010010BC704762
:1007E00010B5141E73F1000408DA401C41F1000139
:1007F00092185B411A4301D120F0010010BD2DE990
:10080000F04D92469B4611B1B1FA81F202E0B0FA86
:1008100080F220329046FFF77BFF04460F4640EA05
:100820000A0041EA0B0153465A46084313D01146C9
:1008300053EA010019D0C8F140025046FFF777FF94
:1008400005460E46504659464246FFF761FF0843AB
:1008500005D0012004E020463946BDE8F08D002097
:10086000054346EAE0762C4337430A986305E40AD9
:10087000A0EB08000022FD0A44EA47540A3002D5E2
:1008800000200146E9E7010510196941DDE9084545
:1008900000196941BDE8F04DA2E7C1F30A52C1F366
:1008A000130140F2FF3341F480119A4202DA002032
:1008B0000146704740F233439A42A2F2334202DCCF
:1008C0005242FFF734BFFFF723BF0000064C074D2D
:1008D00006E0E06840F0010394E807009847103410
:1008E000AC42F6D3FFF766FCE46F00080470000822
:1008F000464910B54A6822F440324A604A68436863
:100900001A434A6001684A6822F480724A600168AA
:100910004A68036942EA03224A6001684A6822F091
:1009200040724A6001684A6883681A434A600168F5
:100930008A6822F400628A6001688A68C3681A4380
:100940008A60816A6FF07062D14201688A6822F021
:1009500070628A6001688A680CD0836A1A438A6070
:1009600001688A6822F040528A6001688A68C36A16
:100970001A4301E022F040528A6001688A6822F03E
:1009800002028A6001688A68037E42EA43028A6042
:1009900090F82010002901684A680FD042F40062E4
:1009A0004A6001684A6822F460424A6001684A6805
:1009B000174C436A04EB43331A4301E022F400620C
:1009C0004A600168CA6A22F47002CA620168CA6A8F
:1009D000838B104C04EB03531A43CA6201688A6884
:1009E00022F400728A6001688A6890F8303042EA26
:1009F00043228A6001688A6822F480628A60016802
:100A00008A68406942EA8020886010BD0023014066
:100A100000E0FFFF0000F0FFFEE7000010B5064B0E
:100A200000200146DA78054C02E02154401CC0B297
:100A30009042FAD3D97010BD08000020180400209D
:100A40007047704710B5044600F06CF90A21204643
:100A500000F016F9204600F0B5F880B210BD000095
:100A600078B50024009490F83C20012A19D0012286
:100A700080F83C200A6807230568092A13D9EE6824
:100A80000A3A02EB420293409E43EE600B788A687A
:100A90000A3B03EB43039A400368DD682A43DA60AC
:100AA00010E0022078BD2E6902EB420293409E4383
:100AB0002E610B788A6803EB43039A4003681D6933
:100AC0002A431A614A681F23072A13D205686E6BEE
:100AD000521E02EB820293409E436E630A8893B2D9
:100AE0000A79521E02EB820293400268556B2B4337
:100AF000536327E005680D2A12D22E6BD21F02EB3A
:100B0000820293409E432E630B790A88DB1F92B2C8
:100B100003EB83039A4003681D6B2A431A6311E0B9
:100B2000EE6A0D3A02EB820293409E43EE620B792D
:100B30000A880D3B92B203EB83039A400368DD6A97
:100B40002A43DA621B4B0568194A9D420AD10D6897
:100B5000122D07D1556825F400055560556845F4F8
:100B60008005556005689D421DD1134D0B68AB4251
:100B700001D0112B17D1536823F4800353605368BD
:100B800043F4000353600968A9420CD10B490C4A95
:100B90000968B1FBF2F101EB8101490000E0491E57
:100BA00000910029FBD180F83C40002078BD000076
:100BB00000230140002001401200001048000020E6
:100BC00040420F000068C06C704770B504004FF0E1
:100BD000000503D0206C002610B107E0012070BD95
:100BE000204600F01DF8666484F83C60206CC00666
:100BF00010D4206C20F4885040F00200206420467D
:100C0000FFF776FE6664206C20F0020040F00100E1
:100C1000206400E0012584F83C60284670BD000097
:100C200010B586B0044614216846FFF713FB11493E
:100C3000206888421CD110480021026842F40072EA
:100C40000260006800F4007005900B4814380268D8
:100C500042F004020260006800F0040005900420E5
:100C600000900320CDE901016946044800F0F4F842
:100C700006B010BD00210140443802400008024087
:100C80002DE9F041044600680D4681684FF00007E9
:100C900049050BD58068C00508D5206C40F02000C0
:100CA000206484F83C700120BDE8F08100F0D0F9A8
:100CB00006460FE0681C0DD025B100F0C9F9801B75
:100CC000A84207D9206C40F00400206484F83C70EE
:100CD0000320E9E7206800688007EBD521686FF002
:100CE00012000860206C40F4007020642068816865
:100CF00011F0405F13D1217E89B9C16A11F4700FE0
:100D000002D0806840050AD4206C20F480702064F2
:100D1000206CC00403D4206C40F00100206400204B
:100D2000C2E7000018B50021009190F83C20012A8C
:100D300007D0012280F83C2002689368DB0702D0CC
:100D400011E0022018BD936843F0010393602A4A22
:100D50002A4B1268B2FBF3F202EB420200E0521E91
:100D60000092002AFBD102689368DB0741D0036C34
:100D700040F20164A34343F48073036453685B054A
:100D800005D5036C23F4005343F480530364036CD0
:100D9000DB0404D5436C23F00603436400E04164A4
:100DA00080F83C1016496FF0220313604968006810
:100DB000CA06144906D088421BD1816811F0405FF1
:100DC00013D016E08842F8D00F4A904203D1D1F8F0
:100DD0000423D206F1D00D4A90420AD1D1F804136F
:100DE00001F01F011029E8D303E0816841F0804140
:100DF0008160002018BD00004800002040420F0024
:100E00000023014000200140002101400022014058
:100E100090F83510022903D08021416501207047E8
:100E2000052180F835100068016821F0010101609A
:100E30000020704770B5044600F00AF90546601CB2
:100E400002D004480078044400F002F9401BA0429C
:100E5000FAD370BD3C0000202DE9F84F00224FF07E
:100E6000010803254FF00F0E0B6808FA02F4234027
:100E7000A3426ED14E68012E05D0022E03D0112E52
:100E800001D0122E12D186684FEA420C05FA0CF7F7
:100E9000BE43CF6807FA0CF7374387604668A6431E
:100EA0000C79C4F30014944034434460C66857007E
:100EB00005FA07FC8C6826EA0C06BC403443C46083
:100EC0004C68022C01D0122C13D1D40800EB8404FE
:100ED000A346D4F8209054074FEAD46A0EFA0AF6D3
:100EE00029EA06090E6906FA0AF646EA0906CBF867
:100EF000206004680E7924EA0C0406F00306BE4064
:100F0000264306604C68E4006FD53B4C266846F4E7
:100F100080462660246822F0030604F4804400948E
:100F2000364C3444A446D4F808489607360F0EFAD7
:100F300006F7BC43324FB84201D100272EE0314FB3
:100F4000B84201D1012729E02F4FB84202D1022730
:100F500024E04AE02D4FB84201D103271EE02C4F78
:100F6000B84201D1042719E02A4FB84201D1052720
:100F700014E0294FB84201D106270FE0274FB842AD
:100F800001D107270AE0264FB84201D1082705E022
:100F9000244FB84201D1092700E00A27B740274370
:100FA000CCF80878204E34684F689C43FF0300D586
:100FB0001C4334601C4E361D34684F689C43BF038D
:100FC00000D51C433460184E083634684F689C4383
:100FD000FF0200D51C433460134E0C3634684F6852
:100FE0009C43BF0200D51C433460521C102AFFF4FE
:100FF0003BAFBDE8F88F00004438024000300140AC
:10100000000002400004024000080240000C0240C0
:10101000001002400014024000180240001C024070
:101020000020024000240240003C014000690840CA
:1010300000D001207047426931EA020200D1090460
:10104000816170470AB1816170470904FBE70000C4
:1010500001488068704700003C0000200248816819
:1010600002781144816070473C0000200B4810B5A5
:10107000016841F400710160016841F48061016020
:10108000016841F480710160032000F06FF80020D6
:1010900000F006F800F024F8002010BD003C0240EB
:1010A00070B50D4D04464FF47A712878B1FBF0F01D
:1010B0000A490968B1FBF0F000F07AFC48B9102C3D
:1010C00007D200222146501E00F030F800206C604C
:1010D00070BD012070BD00003C00002048000020D1
:1010E0000A4808B5016841F480410160006800F4D5
:1010F000804000900548001F016841F08051016068
:10110000006800F08050009008BD000044380240A4
:10111000002809DB00F01F020121914040098000F6
:1011200000F1E020C0F8001170470000F0B40E4B51
:101130001B680C46C3F30223C3F10705042D00D935
:101140000425191D072901D2002300E0DB1E01261A
:1011500006FA05F1491E214099409E40761E164030
:101160003143F0BC02F038BE0CED00E0064900F05F
:10117000070208684FF6FF03184040EA0220034ABE
:1011800010430860704700000CED00E00000FA0515
:101190002DE9F8431748016841F08051016000686B
:1011A000154F00F08050012600903E64FFF750FF7D
:1011B00005464FF47A78114C05E000BFFFF748FF71
:1011C000401B40450DD86068C003F7D57E64FFF72B
:1011D0003FFF0546464607E0FFF73AFF401BB04297
:1011E00002D90320BDE8F88360688003F4D50020AD
:1011F000F8E700004038024000000E420070004056
:101200002DE9F0470E46050065D0DFF81481D8F8C7
:101210000000F7B200F00F00B04207D288F800706B
:10122000D8F8000000F00F00B04254D128683D4CBF
:10123000810712D5400703D5206840F4E0502060B4
:101240002878000703D5206840F4604020602068BB
:10125000A96820F0F000084320602878C0072DD04E
:10126000304968680839012812D0022813D00328B1
:1012700011D00968890700292DDA216821F00301BE
:1012800001432160FFF7E4FE814641F2883A0EE017
:1012900009688903EFE709688901ECE7FFF7D8FEE1
:1012A000A0EB0901514502D90320BDE8F087206871
:1012B000696800F00C00B0EB810FEFD1D8F8001096
:1012C000404601F00F01B14207D90770006800F0F5
:1012D0000F00B04201D00120E7E72878400705D58C
:1012E0002068E96820F4E05008432060287800076F
:1012F00006D52068296920F4604040EAC1002060DA
:1013000000F038F82168084AC1F30311515CC84065
:101310000649086006480068FFF7C2FE0020C4E7DF
:10132000003C0240083802409C4A00084800002067
:10133000400000200448054900680968044AC1F3D8
:101340008221515CC84070474800002008380240A4
:10135000AC4A00080448054900680968044AC1F31A
:101360004231515CC84070474800002008380240B4
:10137000AC4A0008154810B5006810F00C0214487B
:1013800013D01449042A0FD0082A0ED10F4C241F61
:101390002268236802F03F025B0207D52068C0F391
:1013A0008810A0FB010106E0084610BD2168C1F3CA
:1013B0008811A1FB00010023FEF714FF2168C1F38F
:1013C0000141491C4900B0FBF1F010BD0838024052
:1013D0000024F40040787D012DE9F84F04006ED020
:1013E0002078DFF83C93C007A9F104054AD009F141
:1013F00004000168C1F38101012908D00068C0F32D
:10140000810002280AD1D9F80000400206D52868D8
:10141000800337D560680028E1D033E06068B0F51C
:10142000803F10D0B0F5A02F286810D020F4803075
:101430002860286820F4802028606068A8B1FFF741
:1014400007FE06460DE0286840F48030F4E740F4DB
:1014500080202860F7E700BFFFF7FAFD801B6428B3
:1014600073D828688003F7D50CE0FFF7F1FD064636
:1014700005E000BFFFF7ECFD801B6428F0D828686A
:101480008003F7D42078DFF89C8280074FF0000AB1
:101490003ED5A348001D016811F00C0F08D000686C
:1014A000C0F3810002280BD1D9F80000400207D414
:1014B0002868800716D5E068012800D112E02BE1EA
:1014C000E068B8B10120C8F80000FFF7C1FD06468A
:1014D00005E000BFFFF7BCFD801B0228C0D82868CC
:1014E0008007F7D52868216920F0F80040EAC1009C
:1014F00028600DE0C8F800A0FFF7AAFD064604E04A
:10150000FFF7A6FD801B02281FD828688007F7D4A4
:101510002078000722D5824E83486169703671B108
:1015200001210160FFF794FD074604E0FFF790FDFD
:10153000C01B022809D830688007F7D50EE0C0F834
:1015400000A0FFF785FD074605E082E0FFF780FD7C
:10155000C01B02287DD830688007F7D42078400768
:1015600068D5DFF8BCB100270BF13C0BDBF80000BD
:10157000C0000BD4DBF8001041F08051CBF8001014
:10158000DBF80000012700F080500090674E3068C3
:10159000C00510D4306840F480703060FFF758FD0B
:1015A000009005E0FFF754FD0099401A022850D83A
:1015B0003068C005F6D55A4EA0686C3601280FD0A9
:1015C0000528306810D020F001003060306820F02D
:1015D00004003060A068B8B1FFF73AFD00900FE05A
:1015E000306840F00100F4E740F004003060F7E7B5
:1015F000FFF72EFD0099411A41F28830814266D8EA
:1016000030688007F4D50EE0FFF722FD009007E078
:10161000FFF71EFD0099411A41F28830814256D8E9
:1016200030688007F4D42FB1DBF8001021F080512E
:10163000CBF80010A069C8B33949091D0968C1F386
:10164000810102294AD00228504607D0C8F860001C
:1016500000E03CE0FFF7FCFC04463BE04746C8F8EE
:101660006000FFF7F5FC064605E000BFFFF7F0FC61
:10167000801B02282BD828688001F7D4D4E9070101
:101680000843A16A2A4A490802EB0141626A41EA19
:101690008211084394F82C1040EA0161C9F8001047
:1016A00001203866FFF7D4FC044606E036E000BFB0
:1016B000FFF7CEFC001B022809D828688001F7D567
:1016C0002CE000BFFFF7C4FC001B022802D9032056
:1016D000BDE8F88F28688001F4D41FE00128F7D016
:1016E000D9F80000E26900F48001914214D1226A25
:1016F00000F03F0191420FD147F6C071626A01408C
:10170000914209D1A26A00F44031914204D1E16AC8
:1017100000F07060884201D00120D9E70020D7E7AF
:101720000438024000004742800E474200700040EB
:101730000000FFFF70B5040005D00025A56294F8F5
:10174000510010B106E0012070BD84F850502046D1
:1017500000F030F8022084F851002068016821F080
:1017600040010160D4E901010843D4E903121143A7
:10177000084361690843218B01F400710843E16962
:101780000843216A0843A16A084321680860A069E8
:10179000042101EA1040616A08432168486020681A
:1017A000C16921F40061C1616565012084F85100BF
:1017B000002070BDF0B587B0044614216846FEF7DE
:1017C00049FD1A49206888422DD11948016841F421
:1017D00080110160006800F48010059014481438EE
:1017E000016841F020010160016801F020010591CC
:1017F000016841F0800101600068022400F080006F
:1018000005904FF400700125032605278DE8F100AF
:1018100069460848FFF720FB40208DE8F100694643
:101820000548FFF719FB07B0F0BD0000005001406C
:101830004438024000140240001C02402DE9F84FD9
:10184000044690F8500000271D4616468946012898
:101850000DD04FF0010B84F850B0FFF7F9FB804634
:1018600094F85100BA46012804D002278EE00220E5
:10187000BDE8F88FB9F1000F7DD0002E7BD003209A
:1018800084F85100C4F854A0C4F83090A686E686C7
:10189000C4F838A0A4F83CA0A4F83EA0C4F844A022
:1018A000C4F840A0A068B0F5004F04D120680168DA
:1018B00041F48041016020680168490603D4016851
:1018C00041F040010160E068B0F5006F606803D04E
:1018D00030B3012E24D040E008B1012E1CD1206B82
:1018E00021680088C86006E020688168890709D5FA
:1018F000216B0988C160206B801C2063E08E401E34
:10190000E08609E0FFF7A4FBA0EB0800A84202D3A1
:10191000681C01D031E07DB3E08E0028E4D11FE0E7
:10192000206B21680078087306E0206881688907C9
:1019300009D5216B09780173206B401C2063E08E70
:10194000401EE08609E0FFF783FBA0EB0800A842F9
:1019500002D3681C01D010E075B1E08E0028E4D1FC
:1019600042462946204601F019FA08B12020606558
:10197000A06820B107E008E0FFE7032706E0206841
:10198000C16880680090606D00B1012784F851B093
:1019900084F850A038466BE74FF0E021042808692E
:1019A00003D020F004000861704740F00400FAE71B
:1019B00010B5401EB0F1807F01D3012010BD4FF063
:1019C000E02460610F21601702F006FA0020A06198
:1019D00007202061002010BD7047704770B590F857
:1019E0003C20012A32D0012480F83C40022280F8B9
:1019F0003D2003685A689D6822F070060A683243E9
:101A00005A60134B02689A4214D0B2F1804F11D041
:101A1000104B9A420ED0104B9A420BD00F4B9A4269
:101A200008D00F4B9A4205D00E4B9A4202D00E4B73
:101A30009A4204D1496825F080031943916080F8E7
:101A40003D40002180F83C10084670BD022070BD6A
:101A5000000001400004004000080040000C00406D
:101A600000040140004001400018004010B504008F
:101A700003D094F83D0010B107E0012010BD002014
:101A800084F83C00204600F00DF8022084F83D0068
:101A9000211D206801F0C6FE012084F83D000020D1
:101AA00010BD000008B501682F48B1F1804F11D07A
:101AB0002E4A91421DD1016841F002010160006887
:101AC000002200F00200009011461D20FFF72EFBBF
:101AD0001D2043E0016841F001010160006800221F
:101AE00000F00100009011461C20FFF71FFB1C2096
:101AF00034E01F4A91420ED1016841F004010160B7
:101B00000068002200F00400009011461E20FFF73C
:101B10000DFB1E2022E0174A91420ED1016841F0D0
:101B2000100101600068002200F0100000901146D2
:101B30003620FFF7FBFA362010E00F4A914211D110
:101B4000016841F0200101600068002200F02000DF
:101B5000009011463720FFF7E9FA3720BDE808402A
:101B6000FFF7D6BA08BD000040380240000400402C
:101B70000008004000100040001400400168CA68DE
:101B800042F00102CA600068816801F0070106297D
:101B900003D0016841F0010101600020704770B579
:101BA000044690F83C00012817D0012584F83C50E9
:101BB000022084F83D002068826822F0770222F437
:101BC0007F4282600868502830D00DDC20284DD03C
:101BD00005DC98B310283BD148E0022070BD3028C6
:101BE00044D0402834D139E0602828D0702806D06D
:101BF000B0F5805F2CD0B0F5005F29D10AE0CB684A
:101C0000D1E90121206801F07EFE2068816841F061
:101C1000770109E0CB68D1E90121206801F073FE6A
:101C20002068816841F48041816011E0CA68496898
:101C3000206801F03DFF5021206807E016E0CA68E7
:101C40004968206801F045FF6021206801F065FEC9
:101C500084F83D50002084F83C0070BDCA68496893
:101C6000206801F025FF40212068EFE72268014647
:101C70001046EBE7704770B50446006801694FF005
:101C80000005C943890715D4C168C943890711D420
:101C9000E91E0161012020772068806980072046C5
:101CA00002D0FFF7E7FF04E000F0C0F8204600F0A4
:101CB00042F9257720680169C943490717D4C168EB
:101CC000C943490713D46FF0040101610220207752
:101CD0002068806910F4407F204602D0FFF7CAFFD9
:101CE00004E000F0A3F8204600F025F925772068ED
:101CF0000169C943090716D4C168C943090712D449
:101D00006FF008010161042020772068C069800716
:101D1000204602D0FFF7AEFF04E000F087F820462F
:101D200000F009F9257720680169C943C90617D46D
:101D3000C168C943C90613D46FF0100101610820BE
:101D400020772068C06910F4407F204602D0FFF75A
:101D500091FF04E000F06AF8204600F0ECF82577E7
:101D600020680169C943C90708D1C168C943C907C7
:101D700004D1891E0161204600F000F92068016944
:101D8000C943090609D4C168C943090605D46FF0DF
:101D9000800101612046FFF71FFE20680169C943E9
:101DA000490609D4C168C943490605D46FF040010A
:101DB0000161204600F0E3F820680169C943890603
:101DC0000BD4C168C943890607D46FF020010161B3
:101DD0002046BDE87040FFF700BE70BD10B586B06C
:101DE000044614216846FEF735FA2068B0F1804FAA
:101DF00015D10C480021026842F00102026000681F
:101E000000F001000590202000900220CDE90101A2
:101E10000120CDE9031069460348FFF71DF806B01D
:101E200010BD00003038024000000240704770B51D
:101E3000044690F83C000D4601280DD0012684F898
:101E40003C60022084F83D0042B1042A18D0082AE0
:101E50002AD00C2A4DD139E0022070BD206801F053
:101E600065FD2068816941F0080181612068816910
:101E700021F004018161206881692A69114311E020
:101E8000206801F083FD2068816941F4006181616F
:101E90002068816921F480618161206881692A69F3
:101EA00041EA0221816124E0206801F0A5FD20685B
:101EB000C16941F00801C1612068C16921F00401D4
:101EC000C1612068C1692A69114311E0206801F0ED
:101ED000C7FD2068C16941F40061C1612068C16922
:101EE00021F48061C1612068C1692A6941EA022147
:101EF000C16184F83D60002084F83C0070BD10B5DD
:101F0000040003D094F83D0010B107E0012010BD9B
:101F1000002084F83C00204600F00CF8022084F8F1
:101F20003D00211D206801F07DFC012084F83D006A
:101F3000002010BD7047704710B5044600680122AC
:101F400001F0D4FC0B492068884202D00A4988423B
:101F500003D1416C41F4004141642068816801F083
:101F60000701062903D0016841F00101016000204A
:101F700010BD0000000001400004014070477047A0
:101F80007047000070B5026804461068D168536954
:101F900010F00F0F53D003F0010501F490762E439B
:101FA0005FD0C20705D0CA0503D5E26B42F001023B
:101FB000E263420705D5DA0703D0E26B42F0020282
:101FC000E263820705D5DA0703D0E26B42F0040230
:101FD000E263020707D501F020022A4303D0E26B37
:101FE00042F00802E263E26B002A34D0800604D596
:101FF000880602D5204601F094FD20684069E16B17
:10200000C0F3801001F008010143204624D001F004
:102010007AFD2068416949061AD5416921F04001DD
:102020004161606BA0B11B490165606BFEF7F0FE7A
:10203000002810D0606B016DBDE870400847830632
:102040000FD58B060DD52046BDE8704001F069BD67
:102050002046FFF795FF70BDFFF792FF0020E06379
:1020600070BD030606D50B0604D52046BDE87040BA
:1020700001F036BE4006F3D54806F1D5D1682046BA
:1020800021F04001D160202184F8391000F01BF9C3
:1020900070BD0000F73A000870B5040004D094F851
:1020A0003900002510B106E0012070BD84F83850D9
:1020B000204600F023F8242084F839002068C16805
:1020C00021F40051C160204601F076FD20680169CD
:1020D00021F4904101612068416921F02A014161A8
:1020E0002068C16841F40051C160E563202084F894
:1020F000390084F83A00002070BD000010B586B0A9
:10210000044614216846FEF7A5F81849206888425D
:1021100029D117480021026842F0100202600068CD
:1021200000F01000059012481438026842F00102D5
:102130000260006800F0010005904FF4C06000905C
:102140000220CDE901010320039007200490694695
:102150000848FEF781FE002201212520FEF7E6FF58
:102160002520FEF7D5FF06B010BD0000001001408D
:10217000443802400000024090F83A30202B22D12F
:10218000F9B1F2B190F83830012B1CD08162828510
:10219000C2850021C163222280F83A2080F83810DD
:1021A0000168CA6842F48072CA6001684A6942F0F4
:1021B00001024A610068C16841F02001C16000204D
:1021C00070470120704702207047000010B500687A
:1021D0000A49884211D10A490A4BC8780A791A5427
:1021E000401CC870C820FEF725FE05490122BDE845
:1021F0001040091D0448FFF7BFBF10BD001001408B
:102200000800002018040020C00600202DE9F84333
:10221000044690F839001F4616460D46202850D136
:10222000B5B1AEB194F8380001284AD0012084F845
:1022300038004FF00008C4F83C80212084F83900B1
:10224000FEF706FFA6848146E68484F8388026E0FF
:102250000120BDE8F883E08C401EE084A0684B4676
:10226000B0F5805F4FF000024FF0800120460097EC
:1022700003D001F066FDE8B90DE001F062FDC8B9D8
:1022800028882168C0F308004860206908B16D1CE7
:1022900005E0AD1C03E0216815F8010B4860E08CF7
:1022A0000028D8D14B46002240212046009701F05B
:1022B00048FD08B10320CCE7202084F83900002035
:1022C000C7E70220C5E77047FEE700002DE9F041AF
:1022D000324C00212DED028B0A2622780925304848
:1022E000921F052A58D2DFE802F01D0B4D0345006E
:1022F00061704021FEF79AFE00280CD107200FE004
:10230000617801290BD04021FEF790FE012843D0CF
:102310006078401C6070BDEC028BBDE8F081062047
:102320002070F8E71F4D204F9FED208B2A783868EA
:10233000B7EE000A032A06D2FEF775F953EC182B04
:10234000FEF734F80DE002D187ED000A0CE0A2F1AF
:102350000402022A0CD2FEF766F953EC182BFDF7A3
:1023600084FFFEF7A3F938602878401C287011E03C
:102370002970E9E761704021FEF758FE0128CAD1B3
:102380000820CDE76178012906D04021FEF74EFEF6
:102390000028BDD12670BEE72570BCE702000020F2
:1023A0000018024039000020140000209A999999E1
:1023B0009999B93F2DE9F041324C00212DED028B66
:1023C0000426227801253048062A59D2DFE802F097
:1023D00058030B1D464E61708021FEF727FE002832
:1023E0000CD102200FE0617801290BD08021FEF78B
:1023F0001DFE012844D06078401C6070BDEC028B4B
:10240000BDE8F08103202070F8E7204D204F9FEDBC
:10241000218B2A783868B7EE000A032A06D2FEF725
:1024200002F953EC182BFDF7C1FF0EE003D100BFFA
:1024300087ED000A0CE0A2F10402012A0CD8FEF795
:10244000F2F853EC182BFDF710FFFEF72FF9386068
:102450002878401C287011E02970E9E7617080211C
:10246000FEF7E4FD0128C9D10520CCE761780129F8
:1024700006D08021FEF7DAFD0028BCD12670BDE72A
:102480002570BBE700000020001802403800002043
:10249000100000209A9999999999C93F2DE9F04126
:1024A00004461D4616460F462A2000F073FA2046C1
:1024B00000F066FA304600F063FA2B2000F06AFA6A
:1024C000384600F05DFA284600F05AFABDE8F041BF
:1024D0002C2000F05FBA2DE9FE4F161ACDE900104E
:1024E0004FF000085D1A47464FF0FF30002E02DD26
:1024F0004FF0010102E003D14FF000018B4602E0F2
:102500008346C6F10006002D02DD4FF0010002E017
:1025100003D14FF00000824602E08246C5F100057B
:10252000AE4201DD344600E02C46601C4FF000094D
:10253000029019E000980C9A81B2019880B200F0E4
:1025400018F8B0442F44A04504DD0198A8EB040816
:1025500058440190A74203DD00983F1B504400906F
:1025600009F101001FFA80F902998945E2DBBDE813
:10257000FE8F10B514460B460246FFF78FFF20462C
:10258000BDE8104000F0FCB92DE9F04780461F4639
:10259000581E83B21646501E82B20C464046DDF8E5
:1025A0002090FFF77BFF0AE0454604E0484600F034
:1025B000E7F96D1CADB2B542F8D3641CA4B2BC42BD
:1025C000F2D3BDE8F087000070B5684D4FF40054B9
:1025D000002221462846FEF735FD4FF4C87002F070
:1025E00079F8012221462846FEF72CFDC82002F08A
:1025F00071F8642002F06EF8112000F0CBF9782019
:1026000002F068F8362000F0C5F9002000F0D6F995
:102610003A2000F0BFF9052000F0D0F9B22000F018
:10262000B9F90C2000F0CAF90C2000F0C7F900201D
:1026300000F0C4F9332000F0C1F9332000F0BEF9F6
:10264000B72000F0A7F9352000F0B8F9BB2000F062
:10265000A1F9192000F0B2F9C02000F09BF92C205C
:1026600000F0ACF9C22000F095F9012000F0A6F9C5
:10267000C32000F08FF9122000F0A0F9C42000F070
:1026800089F9202000F09AF9C62000F083F90F2084
:1026900000F094F9D02000F07DF9A42000F08EF92C
:1026A000A12000F08BF9E02000F074F9D02000F0B8
:1026B00085F9042000F082F90D2000F07FF9112047
:1026C00000F07CF9132000F079F92B2000F076F966
:1026D0003F2000F073F9542000F070F94C2000F016
:1026E0006DF9182000F06AF90D2000F067F90B2051
:1026F00000F064F91F2000F061F9232000F05EF97A
:10270000E12000F047F9D02000F058F9042000F053
:1027100055F90C2000F052F9112000F04FF9132068
:1027200000F04CF92C2000F049F93F2000F046F968
:10273000442000F043F9512000F040F92F2000F030
:102740003DF91F2000F03AF91F2000F037F9202052
:1027500000F034F9232000F031F9212000F01AF9BB
:10276000BDE87040292000F015B90000001C0240AF
:102770002DE9FF4F81B00446DDE90F7B4FEA570892
:1027800000904FEAD80000FB07FA203AD0B203903D
:10279000029802993844401E83B204EB0800401EA0
:1027A00082B22046FFF77AFE002637E0102F24D0B1
:1027B000202F35D11C49039801EB80105FF00005F4
:1027C00010F80690BBF1000F4FF0010000FA05F081
:1027D00000EA090016D020B12046049A0299FFF7BA
:1027E000C8FE641C0098A4B2211A414510D1029879
:1027F000009C401C80B202900EE00C49039801EB53
:102800000010DBE708B1049800E00E9800F0B8F87B
:102810006D1CEDB2082DD5D3761CB6B25645C5D386
:1028200005B0BDE8F08F0000A4500008B44A0008CD
:102830002DE9FF4F83462DED020B83B0DFED210A1A
:10284000139F154620EE200A7E080024A246BCEE07
:10285000C00A10EE100A1FFA80F92DE0281B401E56
:10286000C1B20A2002F012F9B9FBF0F00A21B0FB64
:10287000F1F201FB1208A81E84420ED1129A00FB4D
:1028800006B08DE8840480B22E22089B0699FFF7DB
:102890006FFF641C6D1CE4B2EDB212988DE88104E8
:1028A00008F13000C2B204FB06B080B2089B069962
:1028B000FFF75EFF641CE4B2AC42CFD309B0BDE8C1
:1028C000F08F00000000C8422DE9FF4F83B00026C2
:1028D000DDE911B81D4682464FEA58073446B14635
:1028E0002CE0281B401EC1B20A2002F0CFF8059947
:1028F000B1FBF0F00A21B0FBF1F201FB120026B9A6
:10290000691E8C4201DA58B101263030C2B204FB94
:1029100007A0CDF800B0CDE9018980B2109B08E096
:10292000CDF800B004FB07A0CDE90189109B80B26F
:1029300020220499FFF71CFF641CE4B2AC42D0D300
:1029400007B0BDE8F08F2DE9FE4F9946DDE90D6730
:1029500014468A460546DDF830800CE0CDF800804C
:102960004B4651462846CDE90167FFF701FF05EBCD
:10297000560085B2641C2278002AEFD1BDE8FE8F94
:1029800010B50446000A00F019F8E0B2BDE81040A6
:1029900000F014B870B5084C05460022802120468E
:1029A000FEF750FB284600F009F82046BDE87040CD
:1029B00001228021FEF746BB001C024001B50448FD
:1029C0000223012269460068FEF738FF08BD0000B7
:1029D000500000207FB50024154800940194029413
:1029E0001249039401604FF48031C0E9011404617D
:1029F000047680F820400F49C0E90A140125C5611A
:102A0000C46080F830404561FEF7DFF808B1FEF79A
:102A100018F80C20CDE90005694602940448FEF739
:102A20001FF8002801D0FEF70CF87FBD00210140FF
:102A3000E00400200100000F2DE9F04186B01421D0
:102A40006846FDF707FC32480024016841F00401A4
:102A50000160016801F004010591016841F0200165
:102A60000160016801F020010591016841F08001D9
:102A70000160016801F080010591016841F00101E8
:102A80000160016801F001010591016841F0020156
:102A90000160016801F002010591016841F0400107
:102AA000016000681B4F00F040000590012280216A
:102AB0003846FEF7C7FADFF860804FF40046002280
:102AC00031464046FEF7BEFA0022B1103846FEF706
:102AD000B9FA4FF402500125CDE900050320CDE9F4
:102AE000025069463846FEF7B7F90096CDE9015421
:102AF000694640460394FEF7AFF9C020CDE90004D3
:102B0000694606480294FEF7A7F906B0BDE8F081D1
:102B100030380240001C024000040240001802400D
:102B2000104810B50E4901604FF4827141600021D8
:102B30008160C1604FF400720161C0E90512082292
:102B4000C0E90721416281620A21C162FEF7F2FDFC
:102B5000002803D0BDE81040FDF773BF10BD000092
:102B6000005001402805002010B58EB000240794C5
:102B7000089409940A940B941C2168460C94FDF760
:102B800069FB1F484FF08041016042F22731C0E9E4
:102B9000011441F28731C0E903148461FEF766FF36
:102BA00008B1FDF74EFF4FF48050079007A9144875
:102BB000FEF7F5FF08B1FDF744FF1148FFF79FF955
:102BC00008B1FDF73EFF0B940BA90D480C94FEF7DE
:102BD00005FF08B1FDF735FF6020009040F6C310F7
:102BE000CDE901040022694605480494FFF71FF966
:102BF00008B1FDF726FF0248FFF7F0F80EB010BD50
:102C00008005002010B586B0002417480094019478
:102C100002940394049413490594016042F227310D
:102C2000C0E901141D21C0E903148461FEF71EFFF1
:102C300008B1FDF706FF4FF48050009069460A483E
:102C4000FEF7ADFF08B1FDF7FCFE049404A90648A9
:102C50000594FEF7C3FE002801D0FDF7F2FE06B092
:102C600010BD000000040040C005002010B586B073
:102C70000024174800940194029403940494134987
:102C80000594016042F22731C0E901140921C0E92D
:102C900003148461FEF7EAFE08B1FDF7D2FE4FF49B
:102CA0008050009069460A48FEF779FF08B1FDF7A9
:102CB000C8FE049404A906480594FEF78FFE002878
:102CC00001D0FDF7BEFE06B010BD000000080040B8
:102CD000000600201CB500240E4800940C49019405
:102CE000016042F22731C0E901143B218461C160D7
:102CF000FEF7BCFE08B1FDF7A4FE00946946054846
:102D00000194FEF76BFE002801D0FDF79AFE1CBD72
:102D100000100040400600201CB500240E4800941E
:102D20000C490194016042F22731C0E901141D21D0
:102D30008461C160FEF79AFE08B1FDF782FE00943F
:102D4000694605480194FEF749FE002801D0FDF7C9
:102D500078FE1CBD00140040800600200C4810B511
:102D60000A4901604FF4E1314160002181600C2289
:102D7000C160C0E904128161C161FFF78DF90028CB
:102D800003D0BDE81040FDF75CBE10BD001001404F
:102D9000C0060020FEE770477047000038B50446C3
:102DA0001248134B0068B0FBF3F04FF47A735843AA
:102DB00000906068B0F5827F0DD10B460092002232
:102DC0008021204600F016F870B1606D40F02000C0
:102DD0006065032038BD009830B1401E0090206827
:102DE0008068C0430006F6D5002038BD48000020AA
:102DF00000366E012DE9F0411D4617460E46044689
:102E0000DDF8188008E0681C06D0FEF721F9A0EB79
:102E10000800A8420BD255B12068806836EA00004D
:102E200030D00020B842EED10020BDE8F08120680B
:102E3000416821F0E00141606068B0F5827F0BD10C
:102E4000A068B0F5004F02D0B0F5806F04D12068C3
:102E5000016821F040010160A06AB0F5005F09D16E
:102E60002068016821F4005101602068016841F484
:102E700000510160012084F85100002084F85000C6
:102E80000320D2E70120CDE77047FEF7E7B8000046
:102E900030B593B030216846FDF7DCF914210CA859
:102EA000FDF7D8F91B480025016841F08051016009
:102EB000006800F0805011901748016841F44041CB
:102EC00001600068022400F440401190012000904D
:102ED000000401908001CDE90640192008904FF4CC
:102EE000B470CDE9090404200B906846FEF774FA2B
:102EF000FEF74EF90CA90F2081E831004FF4A050E5
:102F00000F90E002109005210CA8FEF779F913B09C
:102F100030BD0000403802400070004005480168A4
:102F200041F47001016003494FF00060803908608E
:102F30007047000088ED00E00148FEF79CBE0000ED
:102F40008005002010B5FFF7C1F9BDE81040014829
:102F5000FEF791BEC005002010B52D4C2DED048B61
:102F6000608A9FED278B00EB40009FED279B800040
:102F7000FDF714FB53EC182BFDF71EFA41EC100B78
:102F800051EC190B53EC102BFDF788FA9FED211B28
:102F900053EC112BFDF772FB18D3608A00EB400055
:102FA0008000FDF7FBFA53EC182BFDF705FA41EC16
:102FB000100B51EC190B53EC102BFDF76FFA9FED32
:102FC000171B53EC112BFDF741FB12D8208940F25F
:102FD0001F31B0FBF1F201FB12002081B0F5C87F78
:102FE00005D24FF400410F48FEF725F82089401C18
:102FF00020810D48BDEC048BBDE81040FEF73BBEC0
:10300000FCA9F1D24D62503F000000000000F03FEB
:103010001C00002000000000000000403333333368
:103020003333EB3F00040240000600202DE9F04F4F
:10303000FF4CEF272DED048B002683B0E088FD4D7B
:103040000028FD484FF0010835D0FDF7FBFCC0EB30
:1030500000100101A7EB11302082A07910F0FF00D1
:1030600020703AD09FEDF58BC0B205EB4000218A6D
:1030700030F8020C081AFDF780FA41EC100B00F052
:10308000BBFE53EC182B51EC100BFDF7F7FA1DD2D9
:103090002078401E10F0FF002070E5D1A178204676
:1030A000491CC9B2A170032917D98670018A2980E9
:1030B000A4F8068011E0FDF7C5FCC0EB001001018B
:1030C000E088A7EB113125F8101004E0E188208A90
:1030D00025F811002078401CE080E188628905EB2A
:1030E000410030F8020C904200D36081A2889042E7
:1030F00000D2A080F0297DD10020D249E080A288B2
:103100000A80D1496289D14D0A80608140F6FF7002
:10311000A08094ED060AD5ED000ADFF834939FED08
:10312000CD8AB4EE600ACC4EF1EE10FA4FF6FF7B7A
:1031300008D194ED050AD9ED000AB4EE600AF1EE6B
:1031400010FA63D084F800805F462078D4ED050A39
:1031500036F81010C1F1EF0100EE101AB8EEC01AE7
:1031600081EE200A38EE400ABCEEC00A10EE101ABA
:1031700000EE100A8BB2B8EE401A94ED060AC1EECA
:10318000001ABCEEE11A11EE101A8AB206EB4001E9
:10319000401E31F8021C0097C1F1EF0101EE101A38
:1031A000B8EEC11AC1EE201A78EE610AFCEEE00A10
:1031B00010EE901A00EE900A89B2F8EEE00A80EE66
:1031C000801ABCEEC10A10EE100A80B2FFF783F934
:1031D0002078401CC0B22070F028B6D3D4ED060A87
:1031E00095ED000AF4EE400AF1EE10FA03D084EDFA
:1031F000060A0BE0C3E2D4ED050A99ED000AF4EEED
:10320000400AF1EE10FA01D084ED050A894F84F8E6
:103210000080A24654469AF8030068BB207807EB6A
:10322000400131F8022C8D4909788A4213D88C4923
:1032300060700A780BE000BF37F81130934204D376
:10324000401EA081C8B2E08114E0491C6170617821
:10325000F029F1D316E0824B1B789A4212D36070AA
:103260000DE000BF37F812308B4206D8401EE081D7
:10327000D0B2A08184F8038004E0521C62706278AE
:10328000F02AEFD3A089E189401AFDF776F941ECE5
:10329000100B00F0B1FD51EC100BFDF7ABF96082A3
:1032A0002078704AA0F1010C00EE10CAB8EEC01AE6
:1032B00095ED000AC1EE000A10EE901A91427CDDF5
:1032C00000EE900A684AB8EE601AC1EE000A10EEED
:1032D000901A914271DA36F81010C1F1EF0100EE48
:1032E000901AF8EEE01AD9ED000A81EEA01A38EE35
:1032F000411ABCEEC11A11EE101A01EE100A06EBCB
:1033000040008BB2B8EE411A30F8020CCDF800B094
:10331000C0F1EF00C1EE001ABCEEE11A11EE101A76
:1033200001EE100A8AB2B8EEC11AC1EE201A78EE88
:10333000610AFCEEE00A10EE900A00EE90CA81B23B
:10334000F8EEE00A80EE801ABCEEC10A10EE100A18
:1033500080B2FFF7C0F8207837F81010C1F1EF0104
:1033600000EE101AB8EEC01A99ED000AC1EE000A7C
:1033700078EE600AFCEEE00A10EE901A00EE900A79
:103380008BB2B8EE601AD5ED000AC1EE201ABCEE81
:10339000E11A11EE101A8AB207EB400131F8021C53
:1033A000C1F1EF0101EE101AB8EEC11AC1EE001A18
:1033B00038EE610ABCEEC00A00E014E010EE101A0C
:1033C000401E00EE100A4FF4784C89B2B8EEC00AE5
:1033D000CDF800C080EE201ABCEEC10A10EE100A33
:1033E00080B2FFF778F8207807EB400131F8022C23
:1033F00006EB4001401CC0B221F8022C2070F028DE
:10340000FFF408AFB7F8DE01A6F8DE0100271026AA
:103410005C468DE8D0003B4614A20A21A320FFF7AA
:1034200092FA8DE8D0000023192112A2A32025E0F2
:103430001C00002058000020E004002000000000D4
:1034400000406F40180000200400002014000020FD
:103450001000002000005143380200200700002027
:10346000060000200000F041000070434D61783AF2
:10347000000000004D696E3A00000000FFF763FA9B
:103480008DE8D0000023C2A22821A320FFF75BFA19
:103490008DE8D0000023C0A20A214120FFF753FA93
:1034A0008DE8D0000023BDA219214120FFF74BFA7F
:1034B0008DE8D0000023BAA228214120FFF743FA6B
:1034C000CDE9004600230322C84699ED000A0A21EF
:1034D0005F20FFF7ADF9CDE9004600230322A9469E
:1034E00095ED000A19215F20FFF7A2F9AE48008888
:1034F000C0F1EF00FDF741F89FEDAC9B53EC192BA9
:10350000FCF75AFF9FEDAB8B53EC182BFCF7C6FF73
:10351000FDF7CCF8CDE9004600EE100A00230322A7
:103520000A21C120FFF784F9A4480088C0F1EF0008
:10353000FDF723F853EC192BFCF73EFF53EC182B47
:10354000FCF7ACFFFDF7B2F8CDE9004600EE100A3B
:10355000002303221921C120FFF76AF9BAF81200EB
:10356000554600EB40008000FDF718F89FED948B66
:1035700053EC182BFCF720FF41EC100B53EC102BF5
:103580009FED910B51EC100BFCF788FFFDF78EF8C7
:10359000CDE9004600EE100A002303222821C120B5
:1035A000FFF746F9688A00EB40008000FCF7F6FF61
:1035B00053EC182BFCF700FF41EC100B53EC102BD5
:1035C0009FED830B51EC100BFCF768FFFDF712F831
:1035D0000097CDE9014682B2032328216920FFF735
:1035E00073F9D223EB22194623200097FEF773FFCD
:1035F00023221423D22110460097FEF76CFF009778
:10360000CDE9014603230022D7210F20FFF75CF903
:103610000097CDE9014699ED000AF3EE0E0A032367
:1036200020EE200AD721BCEEC00A10EE100A82B2AA
:103630003720FFF749F90097CDE9014699ED000AD7
:10364000DFED650A0323D72120EE200ABCEEC00A75
:1036500010EE100A82B25F20FFF736F90097CDE92D
:10366000014699ED000ADFED5D0A0323D72120EE24
:10367000200ABCEEC00A10EE100A82B28720FFF7C3
:1036800023F90097CDE9014699ED000ADFED540AD0
:103690000323D72120EE200ABCEEC00A10EE100A48
:1036A00082B2AF20FFF710F98DE8D000D7210023B8
:1036B0004CA20846FFF747F9D8F80000FCF7B3FF23
:1036C0009FED491B53EC112BFCF776FEFCF7EEFF48
:1036D000CDE9004600EE100A00230322AF210220AC
:1036E000FFF7A6F8D8F80000FCF79DFF9FED401B00
:1036F00053EC112BFCF760FEFCF7D8FFCDE9004638
:1037000000EE100A0023032287210220FFF790F821
:10371000D8F80000FCF787FF9FED371B53EC112B07
:10372000FCF74AFEFCF7C2FFCDE9004600EE100AA6
:10373000002303225F210220FFF77AF8D8F8000067
:10374000FCF771FF9FED2E1B53EC112BFCF734FEA1
:10375000FCF7ACFFCDE9004600EE100A002303227F
:1037600037210220FFF764F88DE8D000002326A25D
:103770000F210A20FFF7E7F8AF81EF81EF7003B068
:103780002248BDEC048BBDE8F04FFEF774BA000090
:103790004672653A00000000593A7800583A7800BD
:1037A000526174653A000000180000206666666683
:1037B00066660A400000000000006E400400002021
:1037C000FCA9F1D24D62503F000000000000F03F24
:1037D0000000000000004E40000070420000B442B3
:1037E0000000F0422F6D73009A9999999999E13FE1
:1037F0009A9999999999F13F666666666666FA3F65
:103800009A999999999901402F56000040060020F5
:1038100010B5FEF7CFFDBDE810400148FEF72BBA0A
:1038200080060020F0B50268254C264D264E274F15
:10383000274B4FF0804CA04209D0604507D0A842EA
:1038400005D0B04203D0B84201D0984204D122F052
:10385000700E4A6842EA0E02A0421BD0604519D0A1
:10386000A84217D0B04215D0B84213D0984211D018
:10387000184DA8420ED0184DA8420BD0174DA842A3
:1038800008D0174DA84205D0164DA84202D0164DBB
:10389000A84203D122F44075CA682A434D6922F038
:1038A00080022A4302608A68C2620A688262A04279
:1038B00001D0984201D10969016301214161F0BD44
:1038C000000001400004004000080040000C0040DF
:1038D0000004014000400140004401400048014014
:1038E00000180040001C00400020004010B501F00E
:1038F0001F030121046A99408C430462016A9A40C3
:103900001143016210BD10B5846842EA032224F419
:103910007F440A432243826010BD826822F0700215
:103920000A4342F00701816070470000F0B5026A67
:1039300022F001020262036A42688469124E24F096
:1039400073050C682C4323F002058B682B430D4D47
:10395000A84201D0B04205D123F00807CB683B4311
:1039600023F00403A84201D0B04205D14D6922F4EE
:10397000407215438A692A43426084614968416301
:103980000362F0BD0000014000040140F0B5026A8E
:1039900022F010020262026A436884690D6824F40E
:1039A000E64444EA05248D6822F0200242EA05122A
:1039B0000F4D104EA84201D0B04206D1CF6822F080
:1039C000800242EA071222F04002A84201D0B0422F
:1039D00007D14D6923F4406343EA85038D6943EAC7
:1039E000850343608461496881630262F0BD000021
:1039F0000000014000040140F0B5026A22F4807228
:103A00000262026A4368C46922F4007224F07305FA
:103A10000C68124E2C438D6842EA05220E4DA842D6
:103A200001D0B04206D1CF6822F4006242EA0722F8
:103A300022F48062A84201D0B04207D14D6923F43C
:103A4000405343EA05138D6943EA05134360C4619B
:103A50004968C1630262F0BD0000014000040140FA
:103A600030B5026A22F480520262046A4268C36975
:103A70000D6823F4E64343EA05238D6824F40054DB
:103A800044EA0534084DA84202D0084DA84204D1AA
:103A90004D6922F4804242EA85124260C36149685E
:103AA0000164046230BD00000000014000040140D8
:103AB00010B5036A046A24F001040462846924F0E6
:103AC000F00444EA021423F00A020A438461026209
:103AD00010BD10B5036A23F0100303628369046A02
:103AE00023F4704343EA023224F0A00343EA0111B5
:103AF0008261016210BD10B5806B0021C185C18457
:103B0000FEF73EFA10BD0168CA6822F49072CA60DE
:103B100001684A6922F001024A61202180F83A10C6
:103B2000704710B590F83A10222901D0022010BD3C
:103B30008168B1F5805F11D00169002901681FD04B
:103B4000496801F07F03816A4A1C82620B70C18D53
:103B5000491E0904090CC18518D02BE00269816A4D
:103B6000002A0268526805D0D2B20A80816A491CD4
:103B70008162ECE7C2F308020A80816A891CF7E7D8
:103B80004A68816A4B1C83620A70E0E70168CA6870
:103B900022F02002CA600168CA6822F48072CA60FA
:103BA00001684A6922F001024A61202180F83A1036
:103BB000FEF70CFB002010BD2DE9F0410446006823
:103BC0000169E26821F44051114301612169A06853
:103BD000E26908436169114308432168CA6849F2F0
:103BE0000C639A430243CA6020684169A26921F4C8
:103BF000407111434161E069192764253226B0F50F
:103C0000004F354A354920684FF0000806D08842F9
:103C100001D0904236D1FDF79DFB35E0884201D0BE
:103C2000904202D1FDF796FB01E0FDF783FB61684E
:103C30004A18A0FB070148EB0803FCF7D3FA01463A
:103C4000B0FBF5F00201B1FBF5F06FF0180358433B
:103C500001EB800006EBC000B0FBF5F000F0F800CF
:103C600002EB4002B1FBF5F0584301EB800006EB9C
:103C7000C000B0FBF5F000F0070021681044886038
:103C8000BDE8F081FDF756FB61688B0F8A00A0FB51
:103C90000701FCF7A7FA0146B0FBF5F06FF0180238
:103CA000504301EB800006EB0010B0FBF5F000F094
:103CB000F002B1FBF5F002EB0012B1FBF5F06FF092
:103CC0001803584301EB800006EB0010B0FBF5F041
:103CD00000F00F00D1E70000001401400010014087
:103CE00090F83910212901D0022070478168B1F580
:103CF000805F016A0BD04A1C026202680978516039
:103D0000C18C491E0904090CC1840ED017E0098832
:103D10000268C1F30801516001690029016A02D0FB
:103D2000491C0162ECE7891CFBE70168CA6822F0C4
:103D30008002CA600068C16841F04001C160002093
:103D400070472DE9F041984617460E460446069DF9
:103D50001DE0681C1BD02DB1FDF77AF9A0EB08001F
:103D6000A84214D92068C16821F4D071C1602068CC
:103D7000416921F001014161202084F8390084F873
:103D80003A00002084F838000320BDE8F081206864
:103D9000006836EA000004D00020B842D9D00020E4
:103DA000F3E70120F9E700000148FEF7EBB8000057
:103DB000C0060020FEE700000FB4054B10B503A9B4
:103DC000044A029800F0E4F810BC5DF814FB00000F
:103DD00025470008540000200907090E002804DBCD
:103DE00000F1E02080F80014704700F00F0000F1AF
:103DF000E02080F8141D70472DED020B019820F093
:103E0000004001909DED000B02B0704702E008C831
:103E1000121F08C1002AFAD170477047002001E044
:103E200001C1121F002AFBD1704700002DE9FF5F7E
:103E3000DDE90220010DDDF838B0024318D044F668
:103E40001050A1F2FF3141430D140F98012820D0EA
:103E5000A5EB0B00401C5FEA000A4FF00004474E40
:103E6000DFF81C91A046504616D5CAF1000728E09D
:103E70000F98012443A2012808D0002100980F9B2D
:103E8000C0E90021C0E90243BDE8FF9F6FEA0B01D2
:103E9000F4E7CBF10000DEE7074612E0F80707D0B1
:103EA0002246334640464946FCF786FA8046894614
:103EB0002246334610461946FCF77EFA04460E4663
:103EC0007F10002FEAD1DDE90201BAF1000F42466E
:103ED0004B4602DAFCF770FA01E0FCF7DFFA044621
:103EE0000E460022284BFCF7C9FB03D84FF0FF30E9
:103EF000014607E00022254B20463146FCF7B5F984
:103F0000FCF7CBFC102409E0002C0ADB0A2200237A
:103F1000FCF768F9019B30321A55641E50EA010221
:103F2000F2D1641C019AC4F1110314440F9A012ABE
:103F300003D0012208430DD10AE0084304D0002039
:103F40004FF0110B0F9080E7A3EB0B056D1E0DE0FA
:103F50005B4504DD4FF0000205F1010504E003DAE2
:103F60004FF00002A5F10105002AECD000980F994E
:103F7000C0E90231C0E9004586E7000000002440A6
:103F80000000F03F300000000000F0430000E03F80
:103F90002DE9FF4F95B09B468946064600250FE266
:103FA000252877D100242746F84A0121059400E00E
:103FB000044316F8013F203B01FA03F01042F7D109
:103FC00030782A2811D06FF02F033078A0F130021A
:103FD000092A16D8059A44F0020402EB820203EB88
:103FE00042021044761C0590EFE759F8042B059225
:103FF000002A03DA504244F40054059044F00204CD
:10400000761C30782E2816D116F8010F44F00404DF
:104010002A280DD06FF02F023078A0F13003092B41
:1040200009D807EB870302EB4303C718761CF3E7B5
:1040300059F8047B761C30786C280FD006DC4C28AD
:1040400017D068280DD06A2814D104E0742810D045
:104050007A280FD10DE044F400140AE044F48014EF
:1040600001E044F440147278824202D104F58014D5
:10407000761C761C307866280BD013DC582877D055
:1040800009DC002875D04528F6D04628F4D047280A
:104090001AD19DE118E0632835D0642879D06528CD
:1040A00012D195E1702873D008DC6728F1D0692817
:1040B0006FD06E280DD06F2806D1B5E073282CD0B4
:1040C000752875D0782874D05A46179990476D1C7A
:1040D00075E1C4F30250022809D003280DD0D9F8A5
:1040E000001004280DD00D6009F1040967E1D9F82A
:1040F0000010EA17C1E90052F6E7D9F800100D8068
:10410000F2E70D70F0E719F8041B8DF8001000209D
:104110008DF80100EA46012003E059F804AB4FF0A6
:10412000FF3061074FF0000102D40DE008F10101FA
:104130008846B9420FDA8045F8DB1AF808100029E2
:10414000F4D108E008F1010188468142FADB1AF84F
:1041500008100029F6D105985B46A0EB0807214618
:104160003846179A00F094FA284400EB080507E057
:104170004DE029E10DE01AF8010B5A4617999047D6
:10418000B8F10108F7D25B4621463846179A13E189
:1041900042E00A220092C4F302524FF0000A022ABF
:1041A00008D059F804CB032A4FEAEC710AD00DE08D
:1041B00029E02AE009F1070121F00702F2E802C133
:1041C000914609E00FFA8CFC4FEAEC71042A03D106
:1041D0004FFA8CFC4FEAEC71002907DA0A460021FD
:1041E000DCF1000C61EB02012D2202E0220504D576
:1041F0002B228DF80420012203E0E20701D02022C7
:10420000F7E7904659E00A2102E010220DE0102164
:104210004FF0000A00910BE010224FF0000A44F02A
:1042200004040827009203E008224FF0000A0092DD
:10423000C4F30252022A05D059F804CB0021032A04
:1042400008D009E009F1070121F00702F2E802C1F4
:10425000914605E01FFA8CFC042A01D10CF0FF0CFA
:104260004FF00008220728D5702806D0009B83F065
:10427000100353EA0A0305D00EE040228DF8042013
:10428000012208E05CEA010206D030228DF8042009
:104290008DF8050002229046009B83F0080353EA44
:1042A0000A030AD15CEA010201D1620705D5302276
:1042B0008DF804204FF001087F1E582804D034A048
:1042C00003900EA802900DE036A0F9E75346604631
:1042D000009AFBF787FF84460398825C0298401E91
:1042E000029002705CEA0100F0D1029806A9081A57
:1042F00000F1200A600702D524F4803400E0012791
:10430000574502DDA7EB0A0000E0002000EB0A01A0
:10431000009005984144401A0590E00306D45B469E
:104320002146179A059800F0B3F90544002706E0E6
:1043300001A85A46C05D179990476D1C7F1C4745E0
:10434000F6DBE0030CD55B462146179A059800F092
:104350009FF9054404E030205A46179990476D1C98
:104360000099481E00900029F5DC08E002980299A7
:104370005A460078491C0291179990476D1CBAF172
:104380000001AAF1010AF1DC65E100000928010041
:1043900030313233343536373839616263646566BB
:1043A000000000003031323334353637383941427D
:1043B000434445460000000000F058F90544761CCF
:1043C000307800287FF4ECAD19B02846BDE8F08FB6
:1043D000620700D4062709F1070222F0070CFCE867
:1043E0000223E14603F000485FEA080C02D00FF216
:1043F000702C0DE05FEA045C02D50FF2682C07E038
:104400005FEAC47C02D00FF2602C01E0AFF2700CC6
:104410004FF0FF3823F00043CDF850C065280CD092
:1044200006DC452809D046281DD047283DD13DE06F
:10443000662818D067287ED138E00021112F01DBD3
:10444000112000E0781CCDE9000106A90EA8FFF7B5
:10445000EDFCDDE90F010E9A03910021009207F1B6
:10446000010A04914DE04FF000400097CDE90110A2
:1044700006A90EA8FFF7DAFCDDE90F0203920E9BF6
:1044800011990022DDF80CA00093049211B9791C57
:1044900000EB010AB7EB0A0004D4C0F1FF3007F1CA
:1044A000010A0490AAEB0700019044E0012F00DA12
:1044B00001270021112F01DD112000E03846CDE950
:1044C000000106A90EA8FFF7B1FCDDE90F010E9A65
:1044D0000391002104910092BA4621070CD403995C
:1044E000514500DA8A46BAF1010F05DD009AAAF1BA
:1044F0000101515C302908D0B84202DA10F1040FF2
:1045000006DA0121CDE9011015E0AAF10101E9E780
:10451000002805DC049901440491AAEB000102E0A3
:10452000411C514500DD8A460499401A401C019007
:104530004FF000400290200704D40198504501DB61
:10454000CDF8048000208DF84F0002980DF14F0740
:10455000B0F1004F25D02B200E9002984FF00208AA
:1045600000280CDA404202902D200E9007E00A212C
:104570000298FCF7B7F83031029007F8011DB8F146
:104580000001A8F10108F2DC02980028EFD1791EA1
:104590000E980870307800F0200040F0450007F8D1
:1045A000020D12A8C01B00F107081498007800B192
:1045B000012000EB0A01019801EBE07105984144EC
:1045C000401A401E0590E00306D45B462146179A28
:1045D000059800F05DF805441498007818B15A4623
:1045E000179990476D1CE00324D55B462146179A26
:1045F000059800F04DF805441CE00498002807DBFE
:10460000DDE90301884203DD0098405C179901E071
:10461000179930205A469047049805F10105401C2F
:1046200004900198401E019004D12E205A461799FB
:1046300090476D1CBAF10001AAF1010ADDDC05E02A
:1046400017F8010B5A46179990476D1CB8F10001F5
:10465000A8F10108F4DC5B462146179A0598ABE601
:104660002D0000002B000000200000002DE9F0418B
:10467000044600251E461746880404D405E0394642
:104680002020B0476D1C641EF9D52846BDE8F08196
:104690002DE9F041044600251E469046C80301D589
:1046A000302700E02027880404D505E0414638463D
:1046B000B0476D1C641EF9D52846BDE8F0810000A6
:1046C00010B504460420FDF767F90148046010BDE9
:1046D0004C00002070B5054600244FF47A7603E0C4
:1046E000304600F005F8641CAC42F9D370BD000000
:1046F00070B54FF0E024002265690949A369096893
:104700004843A1699942FCD002D2A3EB010302E025
:10471000A5EB010633441A440B468242F1D370BD27
:104720004C00002008B502238DF8000001226946E4
:104730000248FDF76BFD9DF8000008BDC006002093
:104740002DED048B82B0FCF791FCFEF7A1FBFEF788
:1047500073F9FEF73FF9FEF7E3F9FEF7BBFAFEF750
:1047600003FAFEF7D9FAFEF74DFAFEF77FFAFEF7E5
:10477000F5FAB420FFF7A4FFFDF726FF4FF6FF7010
:10478000F023002100901A460846FDF7FDFE76480A
:10479000FDF7F4F97548FDF7F1F97548FDF7EEF905
:1047A0007448FDF7EBF900217348FDF7C5FB73A0D2
:1047B000FFF702FB4FF4FA763046FCF73BFB71A0A3
:1047C000FFF7FAFA7000FCF735FBFCF727F96FA04A
:1047D000FFF7F2FA3046FCF72DFB6EA0FFF7ECFA7C
:1047E0003046FCF727FBFCF719F96EA0FFF7E4FA57
:1047F0003046FCF71FFB6D48FFF7DEFA3046FCF74A
:1048000019FBFCF70BF961A0FFF7D6FA3046FCF76D
:1048100011FB67A0FFF7D0FA3046FCF70BFBFCF763
:10482000FDF85AA0FFF7C8FA3046FCF703FB68A072
:10483000FFF7C2FA3046FCF7FDFAFCF7EFF853A099
:10484000FFF7BAFA714C012730462770FCF7F2FAED
:104850006FA0FFF7B1FAB000FCF7ECFA74A0FFF715
:10486000ABFA3046FCF7E6FA1F217448FFF7A4FACA
:104870003046FCF7DFFA11217148FFF79DFA6BE033
:104880007048008800EB40008000FBF787FE8846F8
:1048900048EC100B05469FED6C8B51EC100B53EC64
:1048A000182BFBF789FD41EC100B53EC102B9FEDFF
:1048B000689B51EC190BFBF7F1FDFBF77CFE48EC14
:1048C000105BA07053EC182B51EC100BFBF774FD30
:1048D00041EC100B51EC190B53EC102BFBF7DEFDE8
:1048E000FBF769FE01465C48FFF766FA3046FCF7C5
:1048F000A1FAA068FBF797FE41EC100B574853EC68
:10490000102BFFF759FA3046FCF794FAE068FBF7F2
:104910008AFE41EC100B524853EC102BFFF74CFA77
:104920003046FCF787FAA078323847280FD36078F2
:1049300068B967704BA0FFF73FFA40F6B830FCF754
:1049400079FA3BA0FFF738FA3046FCF773FAFCF728
:1049500065F80EA0FFF730FA3046FCF76BFA2078C6
:1049600000288DD1FEE70000C005002000060020D1
:1049700040060020800600208005002073746172CC
:10498000740000004154490D0A0000007375636310
:104990006573730041542B4D495043414C4C3F0DBE
:1049A0000A00000047455420495000000C6D0008E3
:1049B00041542B54434D515454434F4E4E3D312C92
:1049C00032303030302C3234302C312C300D0A0063
:1049D00041542B54434D5154545355423D22247459
:1049E00068696E672F646F776E2F70726F70657273
:1049F00074792F36394B57484E464655562F7465B5
:104A0000737431222C310D0A0000000008000020D0
:104A100041542B475454533D312C22BFAACABCD019
:104A2000C4B5E7BCECBCE0B2E2222C310D0A0000B8
:104A300041542B475454533D300D0A00506D00082B
:104A4000D46D00082E000020FCA9F1D24D62503F29
:104A50000000000000004E40586E0008606F000823
:104A6000DC6E000841542B475454533D312C22D066
:104A7000C4C2CAD2ECB3A3D2D1B7A2CBCDC4FAB5CB
:104A8000C4CEBBD6C3222C310D0A00000246012041
:104A900000E05043491EC9B2FBD27047000000003D
:104AA00000000000010203040607080900000000DE
:104AB00001020304000000000000000000000000EC
:104AC00000000000000000080808080808080000AE
:104AD0001818000000486C241200000000000000BC
:104AE000000000000000002424247F1212127F1214
:104AF000121200000000081C2A2A0A0C1828282A72
:104B00002A1C080800000022251515152A5854549F
:104B1000542200000000000C1212120A76252911FE
:104B2000916E000000060604030000000000000073
:104B300000000000004020101008080808080810B5
:104B40001020400000020408081010101010100877
:104B5000080402000000000008086B1C1C6B080819
:104B60000000000000000000080808087F0808088E
:104B7000080000000000000000000000000000002D
:104B8000060604030000000000000000FE00000014
:104B90000000000000000000000000000000000015
:104BA0000606000000008040402020101008080485
:104BB00004020200000000182442424242424242E3
:104BC00024180000000000080E080808080808085B
:104BD000083E00000000003C424242202010080431
:104BE000427E00000000003C42422018204040422B
:104BF000221C0000000000203028242422227E20D5
:104C0000207800000000007E0202021A2640404286
:104C1000221C0000000000382402021A26424242F0
:104C2000241800000000007E222210100808080846
:104C3000080800000000003C42424224182442427E
:104C4000423C0000000000182442424264584040A8
:104C5000241C0000000000000000181800000000E4
:104C6000181800000000000000000008000000000C
:104C70000008080400000040201008040204081086
:104C8000204000000000000000007F0000007F00C6
:104C9000000000000000000204081020402010085E
:104CA000040200000000003C424246402010100078
:104CB000181800000000001C225A555555552D4269
:104CC000221C00000000000808181414243C224292
:104CD00042E700000000001F2222221E2242424220
:104CE000221F00000000007C42420101010101423C
:104CF000221C00000000001F224242424242424267
:104D0000221F00000000003F4212121E1212024237
:104D1000423F00000000003F4212121E1212020227
:104D2000020700000000003C222201010171212243
:104D3000221C0000000000E7424242427E42424202
:104D400042E700000000003E0808080808080808BC
:104D5000083E00000000007C101010101010101011
:104D60001010110F0000007722120A0E0A121222F0
:104D70002277000000000007020202020202020283
:104D8000427F000000000077363636362A2A2A2A6B
:104D90002A6B0000000000E346464A4A5252526223
:104DA000624700000000001C224141414141414155
:104DB000221C00000000003F424242423E0202022A
:104DC000020700000000001C2241414141414D53B7
:104DD000321C60000000003F4242423E121222227A
:104DE00042C700000000007C4242020418204042FA
:104DF000423E00000000007F490808080808080833
:104E0000081C0000000000E7424242424242424287
:104E1000423C0000000000E74242222424141418FF
:104E2000080800000000006B4949494955553622E1
:104E300022220000000000E742242418181824242D
:104E400042E7000000000077222214140808080836
:104E5000081C00000000007E2120101008040442FD
:104E6000423F0000007808080808080808080808F9
:104E70000808780000000202040408080810102046
:104E800020204040001E10101010101010101010A4
:104E900010101E0000384400000000000000000058
:104EA0000000000000000000000000000000000002
:104EB000000000FF000608000000000000000000E5
:104EC00000000000000000000000003C4278444266
:104ED00042FC0000000000030202021A2642424285
:104EE000261A000000000000000000384402020200
:104EF0004438000000000060404040784442424294
:104F000064D80000000000000000003C427E020265
:104F1000423C0000000000F08808087E08080808ED
:104F2000083E0000000000000000007C22221C025D
:104F30003C42423C000000030202023A4642424226
:104F400042E700000000000C0C00000E08080808F2
:104F5000083E0000000000303000003820202020F3
:104F60002020221E0000000302020272120A161202
:104F7000227700000000000E08080808080808084A
:104F8000083E0000000000000000007F9292929214
:104F900092B70000000000000000003B4642424281
:104FA00042E70000000000000000003C4242424294
:104FB000423C0000000000000000001B264242426C
:104FC000221E020700000000000000784442424216
:104FD000447840E000000000000000774C04040426
:104FE000041F0000000000000000007C42023C4062
:104FF000423E0000000000000008083E08080808C3
:1050000008300000000000000000006342424242FD
:1050100062DC000000000000000000E742242414CD
:105020000808000000000000000000EB4949555549
:10503000222200000000000000000076241818184A
:10504000246E000000000000000000E74224241449
:1050500018080807000000000000007E2210080861
:10506000447E000000C0202020202010202020208E
:105070002020C00010101010101010101010101070
:105080001010101000060808080808100808080882
:10509000080806000C32C2000000000000000000FA
:1050A0000000000000000000000000000000000000
:1050B00000000000000000000000000000000000F0
:1050C00000000000000000000000000000000000E0
:1050D00000000000000000000000000000000000D0
:1050E0000000000000000000000000000000C001FF
:1050F000C001C001C001C001C001C001800080002A
:10510000800080008000800080000000000000001F
:1051100000008001C003C003800100000000000007
:1051200000000000000000000000E01CE01CF01E79
:10513000700E38071803080184000000000000000A
:10514000000000000000000000000000000000005F
:10515000000000000000000000000000000000004F
:10516000000000000000000000000000000000003F
:1051700020102010201020102010FE7FFE7F10082D
:10518000100810081008100810081008FE7FFE7F95
:1051900008040804080408040804000000000000D3
:1051A00000000000000000000000000000010001FD
:1051B000C0076019103118311839183938017001D9
:1051C000E001C0038007000F001D003900311C31D1
:1051D0001C310C310C11180DE00700010001000119
:1051E00000000000000000000000000000000000BF
:1051F0001C1036186308630C6304630463026302C3
:105200006301361D9C3780228063406340632063C6
:105210002063306310221836081C000000000000D4
:10522000000000000000000000000000000000007E
:10523000F00098018C018C018C018C018C00CC0059
:105240007800183E1C083608320863046304C3045F
:10525000C303834306438E26781C00000000000031
:10526000000000000000000000001C003C003C00AA
:105270003000300010000C000600000000000000AC
:10528000000000000000000000000000000000001E
:10529000000000000000000000000000000000000E
:1052A000000000000000000000000040002000108E
:1052B0000008000C00040006000300030003800146
:1052C0008001800180018001800180018001000354
:1052D0000003000300060006000C00080010002078
:1052E0000040000000000000000002000400080070
:1052F0001000300020006000C000C000C00080012D
:105300008001800180018001800180018001C00056
:10531000C000C00060006000300010000800040001
:10532000020000000000000000000000000000007B
:105330000000000000018003800300011C713C7923
:10534000783DC0070001C007783D3C791C71000121
:1053500080038003800100000000000000000000C6
:10536000000000000000000000000000000000003D
:105370000000000000000001000100010001000128
:1053800000010001FC7F000100010001000100019B
:10539000000100010000000000000000000000000B
:1053A00000000000000000000000000000000000FD
:1053B00000000000000000000000000000000000ED
:1053C00000000000000000000000000000000000DD
:1053D000000000001C003C003C00300030001000C9
:1053E0000C000600000000000000000000000000AB
:1053F00000000000000000000000000000000000AD
:1054000000000000FE7F000000000000000000001F
:10541000000000000000000000000000000000008C
:10542000000000000000000000000000000000007C
:10543000000000000000000000000000000000006C
:10544000000000000000000000000000000000005C
:10545000000018003C003C001800000000000000A4
:10546000000000000000000000000040006000207C
:105470000030001000180008000C000400060002B4
:105480000003000180018000C00040006000200097
:1054900030001000180008000C0004000600020094
:1054A00000000000000000000000000000000000FC
:1054B000C007600C30181830183018200C600C60D1
:1054C0000C600C600C600C600C600C600C601820B0
:1054D000183018303018600CC007000000000000C1
:1054E00000000000000000000000000000000000BC
:1054F00000018001F80180018001800180018001AC
:105500008001800180018001800180018001800193
:10551000800180018001C003F81F0000000000002E
:10552000000000000000000000000000000000007B
:10553000E007101C0818043004300C300C30003028
:105540000018000800040002000180004000202034
:10555000102008200430FC1FFC1F00000000000089
:10556000000000000000000000000000000000003B
:10557000E003180E0C0C0C180C180C180018000C7A
:105580000006C003000E00180010003000300C3080
:105590000C300C100C18180CE00300000000000088
:1055A00000000000000000000000000000000000FB
:1055B000000C000E000E000F800E800E400E600EDC
:1055C000200E100E100E080E040E040EFE7F000EAC
:1055D000000E000E000E000E000EC07F0000000046
:1055E00000000000000000000000000000000000BB
:1055F000F03FF03F10001000100008000800C8073E
:10560000280C1818081000300030003000300C3022
:105610000C3004180418080CF0030000000000000F
:10562000000000000000000000000000000000007A
:10563000800FC010203010301800180008000C0037
:105640008C0F6C183C301C600C600C600C600C60A3
:105650001860182030306018C007000000000000FB
:10566000000000000000000000000000000000003A
:10567000F83FF83F1C100C08040804040004000262
:105680000002000100010001800080008000C000D5
:10569000C000C000C000C000C0000000000000004A
:1056A00000000000000000000000000000000000FA
:1056B000E007300C18180C300C300C301C30381847
:1056C0007008E007B007180E0C1C063806300630CC
:1056D000063006300C18180CE00300000000000033
:1056E00000000000000000000000000000000000BA
:1056F000E00318040C080C180610063006300630BB
:10570000063006380C3C1836F0310030001800180E
:1057100000180C0C0C060C03F00100000000000047
:105720000000000000000000000000000000000079
:1057300000000000000000000000000000008001E8
:10574000C003C00380010000000000000000000052
:1057500000008001C003C0038001000000000000C1
:105760000000000000000000000000000000000039
:105770000000000000000000000000000000C00069
:10578000C000000000000000000000000000000059
:10579000000000000000C000C00080008000400049
:1057A0004000000000000000000000000000002099
:1057B000001000080004000600038001C000600023
:1057C000300018000C00180030006000C00080019C
:1057D0000003000600040008001000200000000084
:1057E00000000000000000000000000000000000B9
:1057F0000000000000000000000000000000FE7F2C
:1058000000000000000000000000FE7F000000001B
:105810000000000000000000000000000000000088
:105820000000000000000000000000000000040074
:105830000800100020006000C00080010003000686
:10584000000C001800300018000C00060003800156
:10585000C0006000200010000800040000000000EC
:105860000000000000000000000000000000C00771
:105870003018083008600C601C601C601C60003030
:10588000001C0006000180008000800080000000F5
:1058900000008001C003C003800100000000000080
:1058A00000000000000000000000000000000000F8
:1058B000C0076018103018200C2F8C4D864CC64C39
:1058C000C64C664C66446644662666266615CC1C45
:1058D0000C40082018303018C007000000000000FD
:1058E00000000000000000000000000000000001B7
:1058F000C001C001C0014001600320032003200358
:105900003006100610061006F80F080C080C080CDC
:105910000C0C0418041806181F7C0000000000007E
:105920000000000000000000000000000000000077
:10593000FE07181C1838183018301830183018188E
:10594000180CF8071818183018201860186018601C
:105950001860186018301818FE0F000000000000D2
:105960000000000000000000000000000000000037
:10597000C0276038103018200C400C40040006008E
:1059800006000600060006000600060006000C40A1
:105990000C400C2018303018C00700000000000038
:1059A00000000000000000000000000000000000F7
:1059B000FE03180E181818301830183018601860C8
:1059C0001860186018601860186018601860183047
:1059D000183018101818180EFE0300000000000000
:1059E00000000000000000000000000000000000B7
:1059F000FE3F1830182018601840180018081808C2
:105A0000180CF80F180C18081808180018001800BF
:105A10001840184018201830FE3F00000000000019
:105A20000000000000000000000000000000000076
:105A3000FE7F1870184018C0188018001810181031
:105A40001818F81F18181810181018001800180047
:105A500018001800180018007E0000000000000068
:105A60000000000000000000000000000000000036
:105A7000C013701C101018100C200C20040006001D
:105A8000060006000600060006FC063006300C3054
:105A90000C30183018303008C0070000000000003B
:105AA00000000000000000000000000000000000F6
:105AB0003F7E0C180C180C180C180C180C180C182D
:105AC0000C180C18FC1F0C180C180C180C180C18BF
:105AD0000C180C180C180C183F7E00000000000079
