:020000040800F2
:10000000F0510020C1010008854200081D300008A1
:10001000814200080D090008454600080000000064
:10002000000000000000000000000000AD430008D8
:100030001D0900080000000089420008B1430008C3
:10004000DB010008DB010008DB010008DB01000820
:10005000DB010008DB010008DB010008DB01000810
:10006000DB010008DB010008DB010008DB01000800
:10007000DB010008DB010008DB010008DB010008F0
:10008000DB010008DB01000801090008DB010008B2
:10009000DB010008DB010008DB010008DB010008D0
:1000A000DB010008DB010008DB010008DB010008C0
:1000B000DB010008DB010008DB010008DB010008B0
:1000C000DB010008DB010008DB010008DB010008A0
:1000D000DB01000839460008DB010008DB010008ED
:1000E000DB010008DB010008DB010008DB01000880
:1000F000DB010008DB010008DB010008DB01000870
:10010000DB010008DB010008DB010008DB0100085F
:10011000DB010008DB010008D1430008DB01000817
:1001200011090008DB010008DB010008DB01000801
:10013000DB010008DB010008DB010008DB0100082F
:10014000DB010008DB010008DB010008DB0100081F
:10015000DB010008DB010008DB010008DB0100080F
:10016000DB010008DB010008DB010008DB010008FF
:10017000DB010008DB010008DB01000800000000D3
:10018000DB010008DB010008DB010008DB010008DF
:10019000DB010008DB010008DB010008DB010008CF
:1001A000DB010008DB010008DB010008DFF80CD0F0
:1001B00000F04EFB004800475D480008F051002069
:1001C0000648804706480047FEE7FEE7FEE7FEE7F1
:1001D000FEE7FEE7FEE7FEE7FEE7FEE7B5430008C1
:1001E000AD0100082DE9F05F0546002092469B46D0
:1001F00088460646814640241BE02846414647463D
:10020000224600F03FFA53465A46C01A914110D395
:1002100011461846224600F026FA2D1A67EB01080F
:100220004F4622460120002100F01DFA17EB00097D
:100230004E41201EA4F10104DFDC484631462A4627
:100240004346BDE8F09F40EA01039B0703D009E065
:1002500008C9121F08C0042AFAD203E011F8013BB2
:1002600000F8013B521EF9D27047D2B201E000F80B
:10027000012B491EFBD270470022F6E710B513464A
:100280000A4604461946FFF7F0FF204610BD30B578
:1002900005462A460B4612F8010B13F8014B08B12C
:1002A000A042F8D01CB1002802D06D1CF1E728460E
:1002B00030BD2DE9FE4F804681EA0300C00F0C4699
:1002C000009021F0004123F00045B8EB0200A94165
:1002D00005D24046214690461C460B46024623F076
:1002E0000040104347D0270DC7F30A00C3F30A515B
:1002F0000290401A019040286BDAC3F3130040F4D7
:10030000801B0098924620B10023D2EB030A63EBD6
:100310000B0B01985946C0F14002504600F0A3F97A
:1003200006460D4650465946019A00F0BBF910EBBF
:1003300008006141002487EA115284EAE7731A43F6
:1003400040D0009A62B3019A012A4FEA075215DCA5
:10035000001B61EB02014FF0004202EA0752CDE9B7
:100360000042001C41F5801132462B4600F0F2F9A4
:1003700003B0BDE8F08F40462146F9E7001B61EB72
:100380000201001C41F5801300185B412018A2F502
:10039000001747EB030140EAD570B6196D4111E033
:1003A0006D084FEA360645EAC0754FEA0752001B52
:1003B00061EB0201001C41F5801149084FEA300051
:1003C0000019514132462B4603B0BDE8F04F00F012
:1003D000B2B90098012240000023D0EB020263EB87
:1003E000E073009821464FEAE074B8EB000061EB3F
:1003F0000401E9E783F000435BE781F0004158E73F
:100400002DE9FE4F81EA030404F0004421F000418D
:1004100000944FF0000B23F0004350EA01045ED03B
:1004200052EA03045BD0C3F30A54C1F30A552C44C7
:10043000A4F2F3340194A0FB0254C1F3130141F47C
:100440008011C3F3130343F4801301FB024400FB48
:10045000034E840A970A44EA815447EA8357A4FB6F
:10046000076802958D0A05FB07854FEA932C04FB6C
:100470000C542705029D4FEA065847EA1637B5EB9C
:1004800008056EEB070C870E920E47EA811742EAC9
:100490008312A7FB0201B6EB0B0164EB00042B0DEA
:1004A00043EA0C335E1844EB1C50DA465146E7FB36
:1004B0000201C5F313044FEA0B3343EA14534FEA26
:1004C0000432019C43EA0603A4F10C040294009C4C
:1004D000CDE900B400F03EF903B0BDE8F08F002094
:1004E0000146F9E72DE9F04D81EA030404F0004BE1
:1004F00021F0004514464FF0000A23F0004150EA75
:10050000050220D054EA01021DD0C5F30A57024665
:10051000C5F31303C1F31300C1F30A5640F4801569
:1005200043F48013A7EB0608101BD64608F2FD38EB
:1005300073EB050002D308F1010801E092185B415A
:10054000B8F1000F03DA00200146BDE8F08D00206D
:100550004FF48011064684460EE0171B73EB050727
:1005600005D3121B63EB050306434CEA010C490853
:100570004FEA300092185B4150EA0107EDD152EA90
:10058000030012D082EA040083EA0501084305D083
:10059000101BAB4106D20122002306E000224FF0DF
:1005A000004302E06FF0010253101AEB06004CEB1F
:1005B000085110EB0A0041EB0B01BDE8F04D00F0D3
:1005C000BAB80EB540F2334102910021CDE90011D5
:1005D0000A460B4600F0BEF803B000BD00F0004232
:1005E00030F000400AD0C10D01F56071C0F3160073
:1005F00042EA0151C20840071143704700200146FA
:10060000704701F0004330B421F0004150EA01028C
:1006100006D00A0DA2F56072C1F31301002A02DCB4
:1006200030BC00207047440F44EAC104C100E01808
:1006300030BC00EBC25000F047B830B50B46014665
:1006400000202022012409E021FA02F59D4205D371
:1006500003FA02F5491B04FA02F52844151EA2F11B
:100660000102F1DC30BD202A04DB203A00FA02F15D
:10067000002070479140C2F1200320FA03F3194390
:1006800090407047202A04DB203A21FA02F0002132
:10069000704721FA02F3D040C2F120029140084392
:1006A00019467047202A06DBCB17203A41FA02F0A0
:1006B00043EAE07306E041FA02F3D040C2F12002BF
:1006C00091400843194670470029A8BF7047401C55
:1006D000490008BF20F00100704710B4B0FA80FC58
:1006E00000FA0CF050EA010404BF10BC704749B195
:1006F000CCF1200421FA04F411FA0CF118BF012105
:1007000021430843A3EB0C01CB1D4FEA00614FEAE4
:10071000102042BF002010BC704700EBC3501044B3
:100720000029A4BF10BC7047401C490008BF20F03E
:10073000010010BC704710B5141E73F1000408DAF4
:10074000401C41F1000192185B411A4301D120F095
:10075000010010BD2DE9F04D92469B4611B1B1FA52
:1007600081F202E0B0FA80F220329046FFF77BFF80
:1007700004460F4640EA0A0041EA0B0153465A4636
:10078000084313D0114653EA010019D0C8F14002C2
:100790005046FFF777FF05460E46504659464246FB
:1007A000FFF761FF084305D0012004E020463946E9
:1007B000BDE8F08D0020054346EAE0762C43374340
:1007C0000A986305E40AA0EB08000022FD0A44EA47
:1007D00047540A3002D500200146E9E70105101907
:1007E0006941DDE9084500196941BDE8F04DA2E71E
:1007F000C1F30A52C1F3130140F2FF3341F48011F7
:100800009A4202DA00200146704740F233439A428E
:10081000A2F2334202DC5242FFF734BFFFF723BF9C
:1008200030B5041E71F1000404DB4FF00044404277
:1008300064EB0101141E73F1000405DB1C464FF04C
:100840000043524263EB0403994208BF904230BD1B
:10085000064C074D06E0E06840F0010394E807000D
:1008600098471034AC42F6D3FFF7A4FCCC770008CD
:10087000EC7700080146806B036C026C13F0500F9C
:1008800008D0D20648BF00F0E9BB806BC26C0846B6
:10089000104700BF42F40071016401688A6812F0D9
:1008A000405F01D000F0AABB027E002AFAD1CA6ADA
:1008B00012F4700F02D08A685205F3D44A6822F00D
:1008C00020024A60016C21F480710164016CC9044A
:1008D00048BF00F093BB016C41F00101016400F0DE
:1008E0008DBB0000806B40210164416C41F004012C
:1008F000416400F0B3BB0000806B00F0ADBB0000B2
:1009000041F62010C2F2000000F0AABBFEE7000092
:1009100041F66810C2F2000000F02EBE70470000E1
:1009200010B582B000240020DD210022E6230094CF
:1009300002F0D0FC2920DD212922E623009402F0D8
:10094000C9FC5220DD215222E623009402F0C2FCB1
:100950007B20DD217B22E623009402F0BBFCA42057
:10096000DD21A422E623009402F0B4FCCD20DD2199
:10097000CD22E623009402F0ADFCDD200021E6222A
:100980000023009402F0A6FCDD202921E622292381
:10099000009402F09FFCDD205221E62252230094B5
:1009A00002F098FCDD207B21E6227B23009402F0FC
:1009B00091FCDD20A421E622A423009402F08AFC0D
:1009C000DD20CD21E622CD23009402F083FC00201F
:1009D000E621E622E623009402F07CFCE6200021DA
:1009E000E622E623009402F075FC02B010BD000080
:1009F0002DE9F04F81B02DED088B82B040F2340824
:100A0000C2F2000898F80320B0EE608AB0EE409A77
:100A10008B468246A2B94FF6FF7400200021F022D7
:100A2000F023009402F0A6FC00200021F022F02325
:100A3000009402F09FFCFFF773FF012088F8030089
:100A4000B8F80400002840F000819FED830A4FF6BB
:100A5000FF7489EE009A00200246451CDB2818BF6F
:100A60002A46A8F8082092B23AF810103AF8123044
:100A700080B2AAB2009402F02DFCDC2D2846EBD106
:100A800040F20400B0EE080AC2F2000088EE008ACC
:100A900090ED000A90ED01AA10250026C8200F2134
:100AA00003224FF6FF730096019503F09DF9B1EE16
:100AB000000A2AEE000AB1EE04BA80EE0B0ABD204D
:100AC000D22103224FF6FF730096019503F08CF9B3
:100AD0003AEE0A0A80EE0B0A6B20D22103224FF66F
:100AE000FF730096019503F07FF99FED5C0A1920D2
:100AF000D22103224FF6FF730096019503F074F99B
:100B00009FED570ABBF8000029EE009AB2EE0C0ADE
:100B100028EE000ABDEEC00A10EE101AC0EB00105D
:100B200000EE100A3BF81100B8EEC00AC0EB00104E
:100B300080EE090A01EE100AB8EEC11A81EE091A18
:100B40009FED48AA4FF4784900200122CDF800908B
:100B500001263AEE400ABDEEC00A10EE101A3AEE37
:100B6000410ABDEEC00A10EE103A02F0B3FBBBF82A
:100B700000000E27C0EB001000EE100AB8EEC00A0D
:100B800080EE090A3AEE400ABDEEC00A10EE100AE5
:100B9000AAF80000751C2846DB2E28BFDB2000EEDB
:100BA000107AA8F80800B8EEC00A80B228EE000A51
:100BB000C0EBC000BDEEC00A400010EE104A00EECF
:100BC000100AB8EEC00A28EE000A3BF81400BDEE89
:100BD000C00A10EE101AC0EB001000EE100A3BF82D
:100BE0001100B8EEC00AC0EB001080EE090A01EE59
:100BF000100AB8EEC11A81EE091AB0B2AAB2CDF845
:100C000000903AEE400ABDEEC00A10EE101A3AEE1D
:100C1000410ABDEEC00A10EE103A02F05BFB3BF851
:100C200014000E37C0EB001000EE100AB8EEC00A38
:100C300080EE090ADC2D3AEE400ABDEEC00A10EE45
:100C4000100A2AF816002E46A4D102B0BDEC088B7B
:100C500001B0BDE8F08F00BF333353400000000007
:100C60000000804300005C4370470000000000006B
:100C700070B52DED028B84B0002140F2467240F633
:100C80002A3C02E0023161451CD000EB4105B5F879
:100C9000CA40944207D3B5F8C830A34203D2B5F88E
:100CA000CC309C4212D9B5F8CC409442EAD3B5F886
:100CB000CA30A342E6D2B5F8CE309C42E2D8023127
:100CC00005E000BF4FF0010C03E000BF01311FFA47
:100CD00081FC00EB4C03002140F2467540F62A3EB1
:100CE00003E000BF023171451CD003EB4102B2F8B2
:100CF000CC40AC4207D3B2F8CA60A64203D9B2F8DE
:100D0000CE60B44212D2B2F8CE40AC42EAD3B2F8CE
:100D1000CC60A642E6D9B2F8D0209442E2D30231A8
:100D200005E000BF4FF0010E03E000BF01311FFAE4
:100D300081FE0EEB0C0100EB4102002040F24673F5
:100D400040F62A3503E000BF0230A8421CD002EB77
:100D50004004B4F8CE10994207D3B4F8CC608E4268
:100D600003D2B4F8D060B14210D9B4F8D01099428F
:100D7000EAD3B4F8CE608E42E6D2B4F8D260B14283
:100D8000E2D8023003E000BF012001E0013080B270
:100D9000704402304FF6FF75FFF713FC9FED2E0BEA
:100DA00002460B4651EC100BFFF79CFBFFF729FCAA
:100DB000044608EE100A2020019028201421B0EEED
:100DC000480A052245F25843009503F00DF89FEDBF
:100DD000240AB4EE408AF1EE10FA05DD21A004F0F9
:100DE000FBFC642003F03CFC9FED240AB4EE408A37
:100DF000F1EE10FA05DA22A004F0EEFC642003F014
:100E00002FFC2046FFF7EAFB024647F2CC50C0F623
:100E100000000B4604F060F840F23404C2F2000413
:100E2000A17829B140F24400C2F20000FFF724FA91
:100E300020200026CDE9005017A27820142145F289
:100E40005843A670029603F07BF804B0BDEC028B09
:100E500070BD00BF00BF00BF00000000004CED40AF
:100E60000000F04241542B475454533D312C22D0C2
:100E7000C4C2CAB9FDB8DF222C310D000000704297
:100E800041542B475454533D312C22D0C4C2CAB9CB
:100E9000FDB5CD222C310D0042504D0070470000B1
:100EA00070B581B00022009290F83C20012A03D155
:100EB0000221084601B070BD0E6801220A2E80F89A
:100EC0003C2009D3B2B25200D0F800E012FA86F208
:100ED0001E3A0EF10C0305E0D0F800E006EB4602E6
:100EE0000EF110034FF0070C1D680CFA02F4A54335
:100EF0001D608D681C6805FA02F222431A60496879
:100F0000062905D801EB810105390EF1340309E00A
:100F10000C2901EB810187BF41390EF12C032339E4
:100F20000EF130031F221C688A4024EA020242F2BA
:100F3000043C1A60C4F2010CB2B21C6802FA01F15E
:100F4000ACF5417221439645196005D0002180F827
:100F50003C10084601B070BD1221112EC1F20001F3
:100F600018BF8E423AD1DCF800208E4222F4800273
:100F7000CCF80020DCF8002042F40002CCF800207D
:100F8000E4D140F22001C2F2000109684DF683620B
:100F9000C4F21B32A1FB0212910C01EB810149004A
:100FA000009100990029D1D0009901390091009950
:100FB0000029CBD000990139009100990029C5D0B2
:100FC00000990139009100990029BFD00099013999
:100FD000009100990029E7D1B8E700BF122EB5D1E2
:100FE000DCF8001021F40001CCF80010DCF800104F
:100FF00041F48001CCF80010A8E7000041F6201170
:10100000C2F20001884218BF704710B540F23400A8
:10101000C2F200000178002940F20401C2F200018E
:1010200002D0886806E000BF01220270D1E90220E8
:10103000C1E902020C6941F610022146FFF703F9EB
:1010400041F62010C2F20000214640F60842BDE8F9
:10105000104000F0BDB9000070470000704700006C
:10106000B0B50446006802684168920717D511F0D0
:10107000200114D0216CC90603D4216C41F4007105
:101080002164816811F0405F02D1217E002971D076
:101090002046FFF7B3FF20686FF01201016002687D
:1010A0004168520714D511F0800111D0216CC90696
:1010B00003D4216C41F400512164816811F4401F74
:1010C00026D02046FFF7EAFE20686FF00C01016091
:1010D00002684168D20706D011F040011CBF0168C8
:1010E0005FEAC17136D10268416892060FD511F0EE
:1010F000806108BFB0BD616C6FF0200541F0020156
:10110000616405602046FFF7A9FF20680560B0BD57
:10111000816B11F4401F02D081684905D1D4416828
:101120004905CED4816811F0405FCAD1217E0029E3
:10113000C7D1416821F080014160206C20F48050CB
:101140002064206CC005BCD4206C40F001002064F9
:10115000B7E700BF206C40F480302064204600F0E8
:10116000D3F820686FF001010160026841689206BF
:10117000BDD4CCE7C16A11F4700F03D08168490572
:101180003FF586AF416821F020014160206C20F4DA
:1011900080702064206CC0043FF57AAF206C40F072
:1011A0000100206474E70000002804BF012070479C
:1011B00010B50446006C00283ED0206CC00645D413
:1011C000206C41F202118843023042F20431206463
:1011D000C4F20101086820F4403008600A6894E80D
:1011E00009101A43D4F810E00A604168012321F481
:1011F000807141604168C0F6007341EA0E21416090
:10120000416821F040714160416841EA0C01416050
:10121000816821F400618160E16882681143816026
:10122000A16A8268994222F070628260826813D15A
:1012300022F0405119E000BF204600F067F800207E
:10124000606484F83C00206CC006B9D50120002100
:1012500084F83C1010BD00BF11438160816821F00B
:1012600040518160E16A826811438160816821F0A8
:10127000020181608168227E94F8203041EA4201B7
:101280008160416883B141F40061416041684EF280
:10129000000221F460414160616ACFF6FF72436849
:1012A00002EB4131194301E021F400614160C16A60
:1012B00040F2000C21F47001C162E2696169CFF66D
:1012C000F07CC36A0CEB02521A43C262826822F4B9
:1012D0000072826094F83020836843EA4222826080
:1012E000826822F480628260826842EA81218160A1
:1012F00000206064216C012262F30101216400215D
:1013000084F83C1010BD00007047000070B586B036
:10131000044642F200002168C4F201000026814226
:101320000596049602D006B070BD00BF43F63001AA
:101330000096C4F202014A6900F5684042F48072E6
:101340004A614A6902F480720092009A00960A6823
:1013500042F004020A60096801F00401009100995A
:10136000042101910321CDE9021601A900F0FAFA46
:1013700041F6681546F21040C2F20005C4F20200C0
:101380004FF48061C5E9000605F110004FF40062DA
:101390004FF400534FF4807C80E80E104FF400307F
:1013A000C5E908062846C5E9026600F0C5F9002827
:1013B00018BFFFF759FC122000210022A563AC637F
:1013C00000F036FC122000F023FC06B070BD0000D7
:1013D000B0B582B004460020019094F83C0001288A
:1013E00002D1022002B0B0BD94460A460120216815
:1013F00084F83C008868C00729D188684DF6836569
:1014000040F00100886040F22000C2F20000006855
:10141000C4F21B35A0FB0505A80C00EB40000190B1
:101420000198A0B1019801380190019878B1019814
:1014300001380190019850B101980138019001984C
:1014400028B101980138019001980028EAD18868F4
:10145000C00746D0206C40F20175A84300F58070AB
:1014600020644868400504D5206C012565F30D30E3
:101470002064256C0020ED044FF0000544BF656C2E
:1014800025F00605656484F83C00A06B40F6750500
:1014900040F6F903C0F60005C0F60003C0E90F539B
:1014A00040F6E503C0F60003C3646FF022030B604F
:1014B0004B6842F2080543F080634B608B68C4F2CE
:1014C000010543F480738B604C31634600F0E6F90C
:1014D000D5F8FC122068C90606D0A5F1080188429B
:1014E0002CD0002002B0B0BD42F20001C4F20101D4
:1014F000884217D042F20021C4F2010188420DD087
:1015000042F20011C4F201018842EAD1D5F8FC127E
:10151000C90607D005F5FC718842E2D1D5F8FC1266
:10152000C906DED4816811F0405FDAD1816841F0EC
:1015300080418160002002B0B0BD00BF286810F07B
:10154000405FCED1286840F080402860002002B083
:10155000B0BD000090F83510022909D1052180F8AE
:1015600035100068016821F001010160002070471A
:101570008021416501207047F0B581B0044600200C
:10158000009040F22000C2F200000268D4E9166028
:1015900048F2B51337680821C1F64E33814039420D
:1015A000A2FB03250CD0226813685B0708D51368DB
:1015B00023F004031360B160616D41F001016165C6
:1015C00001218140394208D022685269120604D5AF
:1015D000B160616D41F002016165042181403942D1
:1015E00008D022681268920704D5B160616D41F09D
:1015F0000401616510218140394217D020680268DA
:10160000120713D5B16002680168520308D4C905F6
:1016100008D4016821F008010160216C21B905E0BE
:1016200008033FD4216C09B120468847E16D202092
:1016300000FA01F23A4241D020680368DB063DD54A
:10164000B26094F835300268052B1BD122F01602E7
:101650000260426922F080024261226C0AB9A26CE7
:101660001AB1026822F0080202603F208840B06090
:10167000002084F83400012084F83500216D002911
:1016800052D157E00168520310D4C90512D4016841
:1016900021F010010160002084F83400012084F85A
:1016A000350007E0A16C0029BED1BFE7080301D4D3
:1016B000616C00E0E16B09B120468847606DC8B3FA
:1016C000606DC0072ED0052084F835002068A90A77
:1016D000026822F001020260009A01328A420092FE
:1016E0001AD80268D20717D0009A01328A420092B3
:1016F00012D80268D2070FD0009A01328A420092B3
:101700000AD80268D20707D0009A01328A420092B2
:1017100002D80268D207DFD1002084F8340001200B
:1017200084F83500E16C29B1204601B0BDE8F040F5
:10173000084700BF01B0F0BD2DE9F041044600F0BC
:10174000F7F9002C4ED00546002084F83400022022
:1017500084F835002168086820F0010008600868F6
:10176000C00708D000F0E4F9401B05286CD82168B8
:101770000868C007F6D1086848F23F02CFF21002AD
:10178000D4E90135024004F10C0E9EE8C1511A4320
:101790002A4310433043384340EA0800626A40EA73
:1017A0000C00042A40EA0E0320D1D4E90A5E206B23
:1017B0004EEA0302104308604869BEF1000F20F0B2
:1017C000030040EA050040F0040C15D0B8F5005FB6
:1017D00042D0B8F1000F51D1022D52D0012D47D087
:1017E00055B94EE00120BDE8F08100BF0B604869AB
:1017F00020F0070040EA020C6FF00F004AF6AB221F
:1018000050FA81F0CAF6AA22A0FB02231A0947F275
:10181000C453C0F600039A5C40F2FF335F284FF0D8
:101820003F00C1F814C021EA030100FA02F088BFAA
:101830000431C4E916128860002301220020636588
:1018400084F83520BDE8F08103222023032063655E
:1018500084F83520BDE8F081032DCDD80122402346
:101860000120DFE805F0030E030500BFE7E700BF36
:10187000AEF1C070B0FA80F0400904E0032D04D34B
:10188000BAD1CEF300600028B6D001224023012057
:10189000636584F83520BDE8F081000070B590F8EC
:1018A00034C0BCF1010F46D04FF0010C80F834C0B9
:1018B000D0F858E090F835C0BCF1010F38D14FF0A6
:1018C000020C80F835C04FF0000CC0F854C0D0F8BE
:1018D00000C08468056CC06DDCF80060402C26F404
:1018E0008026CCF80060CCF804300B4604BF1346C9
:1018F0000A463F2101FA00F0CCF80830CCF80C2061
:10190000CEF80800DCF8000040F01600CCF800002B
:101910002DB1DCF8000040F00800CCF80000DCF845
:10192000000040F00100CCF80000002070BD00BFB6
:10193000002180F83410022070BD0000B0B50446CC
:1019400000F0F6F8054640F21800C2F200000078F8
:10195000611C18BF044400BF00F0EAF8401BA0421D
:10196000FAD3B0BD2DE9F04F82B000F13E4242F211
:10197000004502F1FF77C4F202050A2243F6004E49
:101980004FEAB726A84208BF0922C4F2010E092E69
:1019900038BF4FEAB7224FF0010A002600274FF068
:1019A0000008009208E000BF023708F10108202F6C
:1019B00006F1040600F0AC800C680AFA08F914EA93
:1019C000090FF1D0D1F804C0BCF1120F00F29880D9
:1019D0000AFA0CF414F0061F00F0928084680322C7
:1019E000CD68BA409443BD402C43846044686FEA9C
:1019F000020B24EA09024FEA1C1404FA08F44FEA25
:101A0000480A22434260C2688C6802EA0B0204FA68
:101A10000AF422434CF01004122CC26012D16FF071
:101A2000030202EA58020244D2F820C006F01C0465
:101A30000F230D69A3402CEA0303A5402B43136237
:101A4000D1F804C002680CF0030302EA0B0203FAA7
:101A50000AF31A435FEACC034FF0010A0260A3D5F0
:101A6000002243F644030192C4F202031A684FF6BF
:101A7000084C42F480421A601A68CFF6FF7C02F4E8
:101A800080420192019A28F00302724452F80C300D
:101A900006F00C050F24AC40A343009C04FA05F5A6
:101AA0002B4342F80C30DEF800204B6842EA09056F
:101AB000DC0358BF22EA0905CEF80050DEF8042006
:101AC0009C0342EA090558BF22EA0905CEF80450F2
:101AD000DEF80820DC0242EA090543F60C4458BF50
:101AE00022EA0905CEF80850C4F2010422689B02DC
:101AF00042EA090558BF22EA0905256054E700BFFC
:101B0000032202FA07F46FEA040BBA467BE700BF30
:101B100002B0BDE8F08F00000069084018BF012046
:101B200070470000002A08BF090481617047000067
:101B300041F61440C2F200000068704740F21800FD
:101B400041F61441C2F20000C2F2000100780A68B6
:101B5000104408607047000080B543F60040C4F2AE
:101B60000200016841F400710160016841F4806184
:101B70000160016841F480710160032000F084F885
:101B8000002000F005F800F027F8002080BD0000DC
:101B900070B540F21806C2F2000640F22001327819
:101BA000C2F200014FF47A730968B3FBF2F2044603
:101BB000B1FBF2F1084600F0F3FC0F2C4FF00105E9
:101BC00008D838B94FF0FF3021460022002500F038
:101BD0002FF87460284670BD82B0002043F64001A3
:101BE0000190C4F202014A6842F480424A604A68A5
:101BF00002F480420192019A0090086840F08050FF
:101C00000860086800F080500090009802B07047AB
:101C1000002848BF704700F01F01012202FA01F1BD
:101C20004EF200124009CEF2000242F82010704736
:101C300010B54EF60C5CCEF2000CDCF80030C3F3AD
:101C4000022E8EF00704042C28BF0424BEF10303E7
:101C50004FF0FF3E0EFA04F438BF0023A143994031
:101C60000EFA03F39A43114300F00F02043A624460
:101C700009010C3200F16043B0F1FF3FC8BF03F52A
:101C80006442117010BD00004EF60C51CEF20001FE
:101C90000A684FF6FF031A4060F30A2242F08060A0
:101CA00040F0FD700860704770B582B00020019070
:101CB00043F64000C4F202000168402641F0805122
:101CC00001600068C4F20E2600F080500190019877
:101CD00047F204050120C4F200053060FFF728FF39
:101CE000044600BF2868C00306D4FFF721FF001B8D
:101CF000B0F57A7FF6D90EE001207060FFF718FF8B
:101D0000044600BF2868800308D4FFF711FF001BBA
:101D1000B0F57A7FF6D9032002B070BD002002B082
:101D200070BD00002DE9F041002800F08B8043F6E3
:101D30000808C4F202080446D8F8F8030D4600F07B
:101D40000F00884207D288F8F853D8F8F80300F05B
:101D50000F00A84276D12068810717D5410705D525
:101D6000D8F8001041F4E051C8F80010010705D57B
:101D7000D8F8001041F46041C8F80010D8F80010FD
:101D8000A26821F0F0011143C8F80010C0073FD14C
:101D9000D8F8F80300F00F00A84207D988F8F853E4
:101DA000D8F8F80300F00F00A8424BD12068410793
:101DB00007D5D8F80010E26821F4E0511143C8F8C3
:101DC0000010000708D5D8F80000216920F4604011
:101DD00040EAC100C8F8000000F07CF8D8F8001014
:101DE00045F2FC72C1F30311C0F60002515C40F2EF
:101DF000200220FA01F140F21C00C2F2000000684B
:101E0000C2F200021160FFF7C3FE0020BDE8F081BE
:101E10006068811E022907D258F8081C89015CBF3E
:101E20000120BDE8F08111E0012807D158F8081C15
:101E300089035CBF0120BDE8F08107E058F8081C69
:101E4000890703D40120BDE8F08100BFD8F8001055
:101E500021F003010843C8F80000FFF769FE0646B9
:101E600041F28837D8F80000616800F00C00B0EB50
:101E7000810F8DD0FFF75CFE801BB842F2D90320A2
:101E8000BDE8F08140F2200043F60801C2F20000F4
:101E9000C4F202010068096845F60C02C1F3822110
:101EA000C0F60002515CC8407047000040F22000BC
:101EB00043F60801C2F20000C4F20201006809689A
:101EC00045F60C02C1F34231C0F60002515CC84035
:101ED0007047000010B543F60404C4F202046068C1
:101EE00000F00C0008280BD0042819BF42F2004073
:101EF000C0F2F40047F64000C0F27D1010BD00BFF4
:101F0000206821682368490247F64001C0F27D112C
:101F100000F03F02C3F388105CBF42F20041C0F200
:101F2000F401A1FB00010023FEF75CF92168022205
:101F3000C1F3014102EB4101B0FBF1F010BD000023
:101F40002DE9F04182B0002860D00446007843F6C5
:101F50000006C007C4F202060BD0B06800F00C0007
:101F6000042840F097803068800302D5606800281C
:101F70004CD0207880071AD5B06810F00C0F09D02B
:101F8000B06800F00C00082840F09E8070684002A5
:101F900000F19A803068800702D5E068012835D1C9
:101FA0003068216920F0F80040EAC10030602078F4
:101FB00000072FD42078400744D4A56915B3B06832
:101FC00000F00C00082840F0B380012D1ED070688E
:101FD000E16900F480028A4218D1216A00F03F02D0
:101FE0008A4213D147F6C071626A014091420DD115
:101FF000A16A00F440328A4208D1E16A00F07060C0
:10200000884203D1002002B0BDE8F081012002B077
:10201000BDE8F0816069002840F20000C4F247206A
:1020200076D00121C0F8801EFFF782FD054600BF73
:10203000706F8007BED4FFF77BFD401B0228F7D9E5
:10204000DDE000BF306C10F080580AD10020019014
:10205000306C40F080503064306C00F08050019063
:10206000019847F20007C4F200073868C00541D460
:10207000386840F480703860FFF75AFD054600BFAD
:102080003868C00536D4FFF753FD401B0228F7D946
:10209000B5E000BFB06800F00C00082803D17068FC
:1020A00040023FF560AF6068B0F5803F07D0B0F503
:1020B000A02F40F08D80306840F480203060306880
:1020C00040F4803030608DE0E068002852D000207D
:1020D000C4F2472001210160FFF72AFD054600BF39
:1020E000306880073FF55CAFFFF722FD401B0228F8
:1020F000F6D984E0A068012805D005284ED1306FBC
:1021000040F004003067306F40F0010030674FE06E
:102110000021C0F8801EFFF70BFD0546706F800799
:102120007FF548AFFFF704FD401B0228F6D966E0B3
:102130000027C4F2472700203866FFF7F9FC022D7C
:1021400005460BD1306880015ED5FFF7F1FC401BDE
:1021500002284FF00300F5D955E700BF3068800131
:102160007FF550AFFFF7E4FC401B02284FF003005F
:10217000F4D948E70020C4F2472000210160FFF7AE
:10218000D7FC0546306880077FF511AFFFF7D0FC1C
:10219000401B02284FF00300F4D934E7316F0028C8
:1021A00021F001013167316F21F0040131674DD019
:1021B000FFF7BEFC054641F2883700BF306F80074D
:1021C00056D4FFF7B5FC401BB842F7D917E000BF63
:1021D0003168002821F480313160316821F4802198
:1021E00031604FD0FFF7A4FC054600BF3068800384
:1021F0003FF5BFAEFFF79CFC401B6428F6D90320D7
:1022000002B0BDE8F08100BF04F11C052FCD0843EA
:102210000021CFF6FF7140EA821001EBC3316FF36A
:102220000F0140EA05600843706001203866FFF73F
:102230007FFC0446306880013FF5E4AEFFF778FC90
:10224000001B02284FF00300F4D9DCE6FFF770FC16
:10225000054641F2883700BF306F800708D5FFF789
:1022600067FC401BB8424FF00300F5D9CBE600BF36
:10227000B8F1000F7FF4A1AE306C20F080503064D4
:102280009BE600BFFFF754FC054600BF30688003A3
:102290007FF56FAEFFF74CFC401B64284FF0030046
:1022A000F4D9B0E670B5A8B300268662054690F86A
:1022B000510020B9284685F8506000F02DF8022022
:1022C00085F8510095E807101143036841EA0C01B5
:1022D00023F0400303602A69EC691143D5E9052323
:1022E000114303F4007211432A6A2143AC6A11437B
:1022F0002143016004216A6A01EA134111434160EC
:10230000C16921F40061C16101206E6585F8510049
:10231000304670BD012070BD2DE9F04385B00068E6
:1023200045F20005C4F20105A84203D005B0BDE89E
:10233000F08300BF002043F630010090C4F2020198
:102340004A696C4642F480124A614A694FF00208B9
:1023500002F480120092009A00900A684FF001097E
:1023600042F020020A600A68032602F0200200926E
:10237000009A00900868052740F08000086008680F
:10238000214600F08000009000984FF4007000900B
:1023900005F54440CDF80480CDF8089003960497E5
:1023A000FFF7E0FA40208DE8010305F54C40214697
:1023B000CDE90367FFF7D6FA05B0BDE8F08300006A
:1023C0002DE9F04381B0044690F85000012803D174
:1023D000022001B0BDE8F0834FF001091D4616460A
:1023E0000F4684F85090FFF7A3FB94F85110012991
:1023F0006ED18046002F4FF0010018BF002E00F074
:10240000BA800320002184F8510061652763A68605
:10241000E686A163A187E187A0682164B0F5004F3B
:102420002068616403D1016841F480410160016862
:10243000490603D4016841F0400101606168731EE0
:10244000E268B1FA81F1B3FA83F349095B09B2F5A5
:10245000006F41EA03013DD131B137F8021BC16081
:102460002763E18E0139E186E18E00296CD0691C79
:102470001BD000BF8168890706D4FFF759FBA0EB8A
:102480000800A84208D348E0216B31F8022BC26053
:102490002163E08E0138E086E08E002854D0206869
:1024A00081688907E9D5EFE720688168890703D447
:1024B000FFF73EFB08E000BF216B31F8022BC26042
:1024C0002163E08E0138E086E08E0028ECD13BE00D
:1024D000022050E039B139780173206B013020635C
:1024E000E08E0138E086E08E70B3681C0BD11BE0F3
:1024F000216B09780173206B01302063E08E013875
:10250000E086E08E00B3206881688907F0D4FFF789
:102510000FFBA0EB0800A842F3D303202BE000BF81
:10252000FFF706FBE08E78B1206881688907F7D550
:10253000216B09780173206B01302063E08E013834
:10254000E086E08E0028EFD120462946424601F081
:102550009DFE00281CBF20206065A06838B90020BF
:1025600000902068C1680091806800900098606DBC
:10257000002818BF0120002184F8519084F85010E1
:1025800001B0BDE8F08300004EF21001CEF2000170
:102590000A68042822F0040208BF04320A60704767
:1025A000411E0020B0EB116F1CBF012070474EF29E
:1025B0001002CEF2000251604EF62351CEF200011D
:1025C000F0230B7007219060116070477047000086
:1025D0007047000010B590F83C20012A4FF002022D
:1025E00051D080F83D200268D2F804E0D2F808C04B
:1025F0000C682EF07003234341F2FF74C4F2000410
:10260000A24253600EDC40F2FF73C4F200039A4210
:1026100016DCB2F1804F2BD040F20043C4F200032D
:1026200024E000BF40F2FF33C4F201039A4213DCFE
:1026300041F60003C4F200039A4219D0002313E0CC
:1026400040F60003C4F200039A4211D040F6004362
:10265000C4F200030AE000BF44F20003C4F2010325
:102660009A4205D040F20043C4F201039A4204D1D9
:1026700049682CF08003194391600121002280F801
:102680003D1080F83C20104610BD0000002804BF1B
:102690000120704710B5044690F83D0028B900208D
:1026A00084F83C00204600F00DF8022084F83D003C
:1026B0002068211D01F0A0FE012084F83D000020CB
:1026C00010BD000080B582B0006841F20001C4F284
:1026D0000001884216D040F20041C4F20001884255
:1026E0000ED10020019043F64000C4F202000168C0
:1026F00041F002010160006800F0020001900198C1
:1027000002B080BD0020009043F64000C4F20200F9
:102710000168002241F0100101600068022100F010
:102720001000009000983620FFF782FA362002B0A1
:10273000BDE88040FFF76CBA0146022081F83D00F9
:102740000868826802F00702062A03D0026842F095
:10275000010202600122002081F83D207047000044
:102760000068C16841F00101C160816801F00701A2
:10277000062903D0016841F0010101600020704783
:1027800080B590F83C20012A4FF0020200F0BF8093
:1027900080F83D20D0F800C04FF67772DCF80830A2
:1027A00023EA0202CCF808200B683F2B1CDD5F2BCC
:1027B00020DD602B50D0B3F5005F6DD0702B40F062
:1027C000A080D1E901E3C968DCF8082043EA0E03E0
:1027D00022F47F4243EA01211143CCF80810DCF8CF
:1027E000081041F077018AE01F2B29DC63B3102B1E
:1027F0002AD086E0402B63D0502B40F08280D1F865
:1028000004E0C968DCF82030DCF8202022F0010266
:10281000CCF82020DCF8182022F0F00242EA011166
:1028200023F00A0242EA0E02CCF81810CCF820205D
:10283000DCF8081041F0570121F020015FE000BFF3
:10284000202B01D0302B5CD1DCF8081021F0700176
:10285000194341F0070152E0D1F804E0C968DCF8FF
:10286000203023F01003CCF82030DCF81830DCF8EE
:10287000202023F4704322F0A00243EA013142EA0F
:102880000E12CCF81810CCF82020DCF8081041F01B
:10289000670121F0100132E0D1E901E3C968DCF8F9
:1028A000082043EA0E0322F47F4243EA0121114348
:1028B000CCF80810DCF8081041F480411FE000BF9C
:1028C000D1F804E0C968DCF82030DCF8202022F0E0
:1028D0000102CCF82020DCF8182022F0F00242EAB5
:1028E000011123F00A0242EA0E02CCF81810CCF8CB
:1028F0002020DCF8081041F0470121F03001CCF82D
:1029000008100121002280F83D1080F83C2010467C
:1029100080BD00007047000010B5016804460869DA
:10292000800744BFC8685FEA807039D408694007EF
:1029300044BFC8685FEA40703ED40869000744BFDE
:10294000C8685FEA007045D40869C00644BFC8681B
:102950005FEAC0604AD40869C0071CBFC8685FEA64
:10296000C07051D10869000644BFC8685FEA0060C2
:1029700052D40869400644BFC8685FEA406053D437
:102980000869800646BFC8685FEA806010BD6FF0C6
:10299000200220460A61BDE81040FFF719BE00BFC3
:1029A0006FF002000861012020778869800743D01A
:1029B0002046FFF7AFFF45E06FF0040008610220FA
:1029C0002077886910F4407F40D02046FFF7A2FFAF
:1029D00042E000BF6FF00800086104202077C8695A
:1029E00080073DD02046FFF795FF3FE06FF01000D5
:1029F000086108202077C86910F4407F3AD020464B
:102A0000FFF788FF3CE000BF6FF00100086120463F
:102A100000F03EF82168A5E76FF0800008612046CD
:102A2000FFF7D4FD2168A4E76FF04000086120465D
:102A300000F030F82168A3E7204600F025F8204692
:102A400000F024F82168002020776FE7204600F08E
:102A50001BF8204600F01AF82168002020776CE768
:102A6000204600F011F8204600F010F82168002000
:102A7000207769E7204600F007F8204600F006F8C6
:102A800021680020207766E770470000704700004B
:102A9000704700007047000070470000B0B5054661
:102AA00000680168C368446901F02F02202A03F01E
:102AB000200213D192B195F83A10222940F0E0801B
:102AC000A968B1F5805F41D12A69A96A002A65D059
:102AD0004068C0B221F8010B65E000BF5FEA017CED
:102AE0001EBF04F0010E03F4907414EB0E0439D1F0
:102AF0000A0617D513F0800214D095F83910212951
:102B000040F0BE80A968B1F5805F33D1296A2B6996
:102B10000A88002B6FF35F22426014BF013102313B
:102B200029622CE0490640F1AB8013F0400108BF58
:102B3000B0BDC16821F04001C1602021284685F860
:102B40003910BDE8B04000F067BA00BF296940689D
:102B50000029A96A18BF00F07F004A1CAA62087009
:102B600022E000BFCC0718BF13F4807336D14B07A7
:102B70003AD440E0296A4A1C2A6209784160E98C0B
:102B800001390A04E9847BD1C16821F08001C16068
:102B9000C16841F04001C160B0BD00BF40686FF343
:102BA0005F2021F8020BA962E88D01380104E88555
:102BB00066D12868C16821F02001C160C16821F494
:102BC0008071C160416921F00101416120212846E5
:102BD00085F83A10BDE8B04000F034B9EB6B43F033
:102BE0000103EB634B0706D5BEF1000F03D0EB6B7F
:102BF00043F00203EB638B0706D5BEF1000F03D051
:102C0000EB6B43F00403EB63BCF1000F06D552EA13
:102C10000E0303D0EB6B43F00803EB63EB6B7BB36A
:102C200011F0200118BF002A38D128684169EA6BE9
:102C300001F0400102F00802891823D0C16821F494
:102C40009071C160416921F001014161202185F845
:102C50003A10416949061BD5416921F040014161A3
:102C6000686BA8B144F23551C0F600010165FEF76A
:102C700071FC28B1686B016DBDE8B040084700BF2A
:102C8000B0BD00BF2846FFF707FF0020E863B0BDD6
:102C90002846BDE8B040FFF7FFBE00BF95F83A10E8
:102CA0002229C2D1A968B1F5805F07D12A69A96A32
:102CB00082B14068C0B221F8010B10E02969406878
:102CC0000029A96A18BF00F07F004A1CAA62087098
:102CD00006E000BF40686FF35F2021F8020BA96295
:102CE000E88D01380104E8859FD12868C16821F08A
:102CF0002001C160C16821F48071C160416921F087
:102D000001014161202085F83A00284600F09AF838
:102D10008BE70000002804BF0120704710B504466F
:102D200090F8390028B9002084F83800204600F0D7
:102D300021F8242084F839002068C16821F400516A
:102D4000C160204601F0FCFB2068016921F490413C
:102D50000161416921F02A014161C16841F40051DA
:102D6000C16000202021E06384F8391084F83A1013
:102D700010BD000080B586B0016841F20000C4F2C9
:102D80000100814202D006B080BD00BF002143F6A1
:102D900030020191C4F20202536900F5704043F021
:102DA00010035361536903F010030193019B0191D8
:102DB000136843F001031360126802F001020192EC
:102DC000019A4FF4C06201920222CDE9022103214F
:102DD00004910721059101A9FEF7C4FD25200021DA
:102DE0000022FEF725FF2520FEF712FF06B080BD6A
:102DF000034690F83A0020280AD100294FF001003C
:102E000018BF002A00D1704793F83800012801D17B
:102E1000022070479962002022219A85DA85D863C2
:102E200083F83A10196883F83800CA6842F480724F
:102E3000CA604A6942F001024A61CA6842F020024F
:102E4000CA607047006841F20001C4F20101884283
:102E500018BF704740F23401C2F2000111F8010FAF
:102E600040F244034A78C2F20003985441F6A0208D
:102E700002F1010CC2F20000012281F801C0FFF74B
:102E8000B7BF00002DE9F041044690F83900202832
:102E90000ED10E4600294FF0010000F0A680174623
:102EA000002A08BFBDE8F08194F83800012803D15A
:102EB0000220BDE8F08100BF012084F838004FF007
:102EC000000821201D46C4F83C8084F83900FEF734
:102ED0002FFEA784E78484F83880E18C0746002918
:102EE00060D005F1010805E016F8011B4160E18C96
:102EF000002958D0E08C0138E0842068A16802687D
:102F0000B1F5805F02F080011ED179B9B8F1000FF0
:102F10002CD0002D6CD000BFFEF70AFEC11B20682C
:102F2000A94265D801680906F6D500BF31886FF35C
:102F30005F2141602169002914BF01360236E18C0E
:102F40000029D7D12FE000BF0029CDD1B8F1000F63
:102F50001AD0002D4CD000BFFEF7EAFDC11B20683F
:102F6000A94245D801680906F6D5BDE701680906FA
:102F7000DCD4016809065CBF01685FEA0161D5D451
:102F800001680906F2D5D1E701680906ACD40168E9
:102F900009065CBF01685FEA0161A5D40168090602
:102FA000F2D5A1E72068016849061AD405B3691C67
:102FB0000ED10168490614D4016849065CBF016856
:102FC0005FEA41610DD401684906F2D509E000BF0E
:102FD000FEF7AEFDC11B2068A94209D80068400673
:102FE000F6D5202084F839000020BDE8F08100BF2C
:102FF000C16821F4D071C160416921F001014161D2
:10300000202084F8390084F83A00002084F8380041
:103010000320BDE8F081000070470000FEE70000DB
:1030200010B540F23004C2F200042178042910D80F
:10303000DFE801F004101626360000BF00206070A3
:1030400041F60000C4F202004021FEF765FD0028B1
:1030500042D010BD607805282ED10220207010BD0E
:1030600040F22401C2F2000191ED000A90ED001A35
:1030700081EE000A80ED000A0320207010BD00BF21
:103080000020607041F60000C4F202004021FEF70B
:1030900043FD012818BF10BD0420207010BD00BFE3
:1030A0006078052811D041F60000C4F202004021EA
:1030B000FEF732FD60B9DFE741F60000C4F202001E
:1030C0004021FEF729FD012802D10020207010BD0B
:1030D00060780130607010BD0120207010BD0000CC
:1030E00010B540F23004C2F20004A178042910D8CF
:1030F000DFE801F004101626360000BF0020E07063
:1031000041F60000C4F202008021FEF705FD002810
:1031100042D010BDE07805282ED10220A07010BD4D
:1031200040F22401C2F2000191ED000A90ED001A74
:1031300020EE010A80ED000A0320A07010BD00BF40
:103140000020E07041F60000C4F202008021FEF78A
:10315000E3FC012818BF10BD0420A07010BD00BF03
:10316000E078052811D041F60000C4F20200802169
:10317000FEF7D2FC60B9DFE741F60000C4F20200BE
:103180008021FEF7C9FC012802D10020A07010BDEB
:10319000E0780130E07010BD0120A07010BD00008B
:1031A0002DE9F04383B041F60049C4F20209174605
:1031B0000E4605464846802100229846FEF7B2FC9E
:1031C00040F22804C2F200042A2120688DF8011080
:1031D0000DF1010101220223FFF7F2F84846802198
:1031E0000122FEF79FFC290A20688DF802100DF1DC
:1031F000020101220223FFF7E3F820680DF1030129
:10320000012202238DF80350FFF7DAF8390A20680B
:103210008DF8041001A901220223FFF7D1F82068DC
:103220000DF10501012202238DF80570FFF7C8F8A2
:10323000484680210022FEF775FC2B2120688DF87E
:1032400006100DF1060101220223FFF7B9F84846E6
:1032500080210122FEF766FC310A20688DF80710F4
:103260000DF1070101220223FFF7AAF8206802A945
:10327000012202238DF80860FFF7A2F84FEA182117
:1032800020688DF809100DF1090101220223FFF7D2
:1032900097F820680DF10A01012202238DF80A80B7
:1032A000FFF78EF8484680210022FEF73BFC2C21D8
:1032B00020688DF80B100DF10B0101220223FFF79E
:1032C0007FF8484680210122FEF72CFC03B0BDE8C0
:1032D000F08300002DE9F04F83B00C46111A05462B
:1032E000A3EB04008B460B4618BF4FF0FF3B48BFD3
:1032F0004B4200290146C8BF4FF0010B002818BF00
:103300004FF0FF31029044BF474202970028C8BFE8
:10331000012102984FF0000A4FF000094FF0000819
:10332000834288BF18460190A8B20F46A1B2024658
:103330001E460B46FFF734FF0C9800F025FE33467F
:1033400009EB06000299019E5144B0EB060908F111
:103350000108D4BF81465D44B1EB060A1FFA88F02C
:10336000D8BF8A463946C8BF3C448642DCDA03B03F
:10337000BDE8F08F2DE9F04381B00E468146501E26
:10338000591E9846154682B28BB248463146FFF721
:1033900007FF464538BFA9450DD2089C4F4600BFE0
:1033A000204600F0F1FD0137B8B2A842F8D301364B
:1033B000B0B24045F2D301B0BDE8F0832DE9F04F43
:1033C00081B041F60044C4F2020420464FF400519B
:1033D00000220027FEF7A6FB4FF4C87001F040F969
:1033E00020464FF4005101224FF00108FEF79AFBEE
:1033F000C82001F035F9642001F032F9204680211F
:103400000022FEF78FFB40F22805C2F200051121D1
:1034100028688DF803100DF1030101220223FEF745
:10342000CFFF204680210122FEF77CFB782001F0AF
:1034300017F9204680210022FEF774FB3621286808
:103440008DF803100DF1030101220223FEF7B8FFEE
:10345000204680210122FEF765FB28680DF103015B
:10346000012202238DF80370FEF7AAFF2046802177
:103470000022FEF757FB3A2128688DF803100DF162
:10348000030101220223FEF79BFF20468021012237
:10349000FEF748FB052128688DF803100DF10301A4
:1034A00001220223FEF78CFF204680210022FEF736
:1034B00039FBB22128688DF803100DF103010122B8
:1034C0000223FEF77DFF204680210122FEF72AFB22
:1034D00028680C260DF10301012202238DF80360F8
:1034E000FEF76EFF28680DF10301012202238DF81B
:1034F0000360FEF765FF28680DF103010122022336
:103500008DF80370FEF75CFF286833270DF1030187
:10351000012202238DF80370FEF752FF28680DF197
:103520000301012202238DF80370FEF749FF2046B4
:1035300080210022FEF7F6FAB72128688DF80310E3
:103540000DF1030101220223FEF73AFF20468021FC
:103550000122FEF7E7FA352128688DF803100DF1F6
:10356000030101220223FEF72BFF204680210022C7
:10357000FEF7D8FABB2128688DF803100DF103017E
:1035800001220223FEF71CFF204680210122FEF7C4
:10359000C9FA192128688DF803100DF103010122E1
:1035A0000223FEF70DFF204680210022FEF7BAFA23
:1035B000C02128688DF803100DF1030101220223B8
:1035C000FEF7FEFE204680210122FEF7ABFA2C21F9
:1035D00028688DF803100DF1030101220223FEF784
:1035E000EFFE204680210022FEF79CFAC2212868C7
:1035F0008DF803100DF1030101220223FEF7E0FE16
:10360000204680210122FEF78DFA28680DF1030182
:10361000012202238DF80380FEF7D2FE204680218E
:103620000022FEF77FFAC32128688DF803100DF100
:10363000030101220223FEF7C3FE2046802101225E
:10364000FEF770FA122128688DF803100DF10301BE
:1036500001220223FEF7B4FE204680210022FEF75D
:1036600061FAC42128688DF803100DF103010122CD
:103670000223FEF7A5FE204680210122FEF752FA22
:10368000202128688DF803100DF103010122022387
:10369000FEF796FE204680210022FEF743FAC6215F
:1036A00028688DF803100DF1030101220223FEF7B3
:1036B00087FE204680210122FEF734FA0F21286878
:1036C0008DF803100DF1030101220223FEF778FEAD
:1036D000204680210022FEF725FA2868D0260DF129
:1036E0000301012202238DF80360FEF769FE2046E4
:1036F00080210122FEF716FAA42128688DF8031014
:103700000DF1030101220223FEF75AFEA1212868D0
:103710008DF803100DF1030101220223FEF750FE84
:10372000204680210022FEF7FDF9E02128688DF86F
:1037300003100DF1030101220223FEF741FE204692
:1037400080210122FEF7EEF928680DF10301012224
:1037500002238DF80360FEF733FE042128688DF8FC
:1037600003100DF1030101220223FEF729FE286850
:103770000D270DF10301012202238DF80370FEF7DE
:103780001FFE28684FF011080DF1030101220223EA
:103790008DF80380FEF714FE132128688DF80310BE
:1037A0000DF1030101220223FEF70AFE2B212868F6
:1037B0008DF803100DF1030101220223FEF700FE34
:1037C00028684FF03F090DF10301012202238DF813
:1037D0000390FEF7F5FD542128688DF803100DF1D4
:1037E000030101220223FEF7EBFD4C2128688DF82E
:1037F00003100DF1030101220223FEF7E1FD182160
:1038000028688DF803100DF1030101220223FEF751
:10381000D7FD28680DF10301012202238DF8037002
:10382000FEF7CEFD0B2128688DF803100DF1030182
:1038300001220223FEF7C4FD28684FF01F0B0DF193
:103840000301012202238DF803B0FEF7B9FD2868B9
:103850004FF0230A0DF10301012202238DF803A08A
:10386000FEF7AEFD204680210022FEF75BF9E12144
:1038700028688DF803100DF1030101220223FEF7E1
:103880009FFD204680210122FEF74CF928680DF1AA
:103890000301012202238DF80360FEF791FD2868E1
:1038A00004218DF803100DF1030101220223FEF71C
:1038B00087FD28680C218DF803100DF1030101220A
:1038C0000223FEF77DFD28680DF10301012202238A
:1038D0008DF80380FEF774FD286813218DF803101E
:1038E0000DF1030101220223FEF76AFD28682C2155
:1038F0008DF803100DF1030101220223FEF760FD94
:1039000028680DF10301012202238DF80390FEF7D0
:1039100057FD442128688DF803100DF103010122A1
:103920000223FEF74DFD512128688DF803100DF19B
:10393000030101220223FEF743FD2F2128688DF8A1
:1039400003100DF1030101220223FEF739FD28685F
:103950000DF10301012202238DF803B0FEF730FDC3
:1039600028680DF10301012202238DF803B0FEF750
:1039700027FD286820218DF803100DF10301012295
:103980000223FEF71DFD28680DF103010122022329
:103990008DF803A0FEF714FD204680210022FEF7DB
:1039A000C1F8212128688DF803100DF103010122CF
:1039B0000223FEF705FD204680210122FEF7B2F822
:1039C000204680210022FEF7ADF8292128688DF8D5
:1039D00003100DF1030101220223FEF7F1FC204642
:1039E00080210122FEF79EF801B0BDE8F08F0000B3
:1039F0002DE9F04F81B00B9E82463009894600FBCD
:103A000006F70AEB5600314401380139984614464E
:103A100082B28BB250464946FFF7C2FB002F00F03E
:103A2000DF81202E02D0102E40F0DA810C98A4F114
:103A300020010028C8B200F0AD80102E4FEA5604D5
:103A400040F0EA8045F61401C0F6000101EB0015D4
:103A5000D34600BF2E78F0070AD01FFA8BF01FFA6A
:103A600089F102460B46FFF79BFB404600F08CFABB
:103A70000BF1010080B2A0EB0A01A14200F08080AE
:103A8000B10708D51FFA89F102460B46FFF788FBFC
:103A9000404600F079FA0BF1020080B2A0EB0A0177
:103AA000A1426DD0710708D51FFA89F102460B4675
:103AB000FFF776FB404600F067FA0BF1030080B297
:103AC000A0EB0A01A1425BD0310708D51FFA89F1AA
:103AD00002460B46FFF764FB404600F055FA0BF137
:103AE000040080B2A0EB0A01A14249D0F10608D53A
:103AF0001FFA89F102460B46FFF752FB404600F0E1
:103B000043FA0BF1050080B2A0EB0A01A14237D0C5
:103B1000B10608D51FFA89F102460B46FFF740FBB4
:103B2000404600F031FA0BF1060080B2A0EB0A012A
:103B3000A14225D0710608D51FFA89F102460B462D
:103B4000FFF72EFB404600F01FFA0BF1070080B292
:103B5000A0EB0A01A14213D0310608D51FFA89F162
:103B600002460B46FFF71CFB404600F00DFA0BF136
:103B7000080B1FFA8BF0A0EB0A00A04203D100BF94
:103B800009F10109D346013F05F101057FF462AF58
:103B900026E100BF0A9D102E40F0E68045F6140194
:103BA000C0F6000101EB0010461E00BF16F8014FE1
:103BB000E007404608BF284600F0E6F9A007404667
:103BC00058BF284600F0E0F96007404658BF284635
:103BD00000F0DAF92007404658BF284600F0D4F933
:103BE000E006404658BF284600F0CEF9A006404601
:103BF00058BF284600F0C8F96006404658BF28461E
:103C000000F0C2F92006404658BF284600F0BCF933
:103C1000013FCBD1E4E000BF45F60461C0F60001EE
:103C200001EB8015D34600BF2E78F0070AD01FFAAB
:103C30008BF01FFA89F102460B46FFF7B1FA4046B6
:103C400000F0A2F90BF1010080B2A0EB0A01A14241
:103C500000F08080B10708D51FFA89F102460B46B3
:103C6000FFF79EFA404600F08FF90BF1020080B298
:103C7000A0EB0A01A1426DD0710708D51FFA89F1A6
:103C800002460B46FFF78CFA404600F07DF90BF137
:103C9000030080B2A0EB0A01A1425BD0310708D536
:103CA0001FFA89F102460B46FFF77AFA404600F008
:103CB0006BF90BF1040080B2A0EB0A01A14249D0DC
:103CC000F10608D51FFA89F102460B46FFF768FA9C
:103CD000404600F059F90BF1050080B2A0EB0A0153
:103CE000A14237D0B10608D51FFA89F102460B462A
:103CF000FFF756FA404600F047F90BF1060080B294
:103D0000A0EB0A01A14225D0710608D51FFA89F15E
:103D100002460B46FFF744FA404600F035F90BF136
:103D2000070080B2A0EB0A01A14213D0310608D5EA
:103D30001FFA89F102460B46FFF732FA404600F0BF
:103D400023F90BF1080B1FFA8BF0A0EB0A00A0423D
:103D500003D100BF09F10109D346013F05F1010577
:103D60007FF462AF3CE000BF45F60461C0F600019D
:103D700001EB8010461E00BF16F8014FE0074046D9
:103D800008BF284600F000F9A007404658BF284663
:103D900000F0FAF86007404658BF284600F0F4F8F3
:103DA0002007404658BF284600F0EEF8E00640469F
:103DB00058BF284600F0E8F8A006404658BF2846FD
:103DC00000F0E2F86006404658BF284600F0DCF8F4
:103DD0002006404658BF284600F0D6F8013FCBD118
:103DE00001B0BDE8F08F00002DE9F04F87B0002A48
:103DF00000F0A0809FED511ADDE910E520EE010AE8
:103E0000BDEEC00A94464FEA550810EE102A42F261
:103E100010774FF000091E4606920590CDE9033851
:103E20003CE000BF11FB0A40DDF80CA080B2414627
:103E300014462E2253460027CDE900E50297664638
:103E4000FFF7D6FD22464FF0000C09F101090136BB
:103E5000D00800EB8000ABEB4000DDE904B45FFA72
:103E600089F111FB0B4140F03002109F88B2D2B2B1
:103E700041465346CDE90075CDF808C0FFF7B8FDBF
:103E800009F101095FFA89F0F1B281424146204609
:103E9000B446BE46D84642F210774BD96FEA0902C3
:103EA0000CEB020A5FEA0A6208D0ACEB0902023AA4
:103EB000D2B2032A04D201220CE000BF01221FE08B
:103EC0000AF0FC04002301220433DEB2A64207FB01
:103ED00002F2F9D11AF0030312D0012B04D102EB44
:103EE000820252000CE000BF4FF47A7402FB04F728
:103EF000022B4FF0640308BF02FB03F73A4600BFF2
:103F000004465FFA8CF0069BC24688465FFA89F148
:103F10000238B3FBF2FB88424CF6CD40CCF6CC40E5
:103F2000ABFB00023FF47EAFDDF80CA066464FF01D
:103F3000000C8DE707B0BDE8F08F00BF0000C8425D
:103F40002DE9F04F83B09B461378CBB1DDE90C9A95
:103F5000DDF838800D4606464FEA5A07541E00BF6A
:103F6000B0B2DAB229465B46CDE9009ACDF80880B6
:103F7000FFF73EFDA3783E44002B04F10104EFD18E
:103F800003B0BDE8F08F0000B0B582B040F2280564
:103F9000C2F200050446010A28688DF806100DF1EA
:103FA000060101220223FEF70BFA28680DF1070132
:103FB000012202238DF80740FEF702FA02B0B0BDDD
:103FC000B0B584B041F62010C2F2000042F2000108
:103FD0004FF080534FF000650024C4F20101C0E9A6
:103FE0000A53012503944FF48032047680F8204070
:103FF000C56180F8305080E81600C0E9034445618F
:10400000FDF7D2F8002818BFFCF72EFE0C20CDE9F2
:10401000000541F62010C2F2000069460294FCF748
:104020003FFF002818BFFCF71FFE04B0B0BD000022
:1040300080B582B00020019043F63000C4F2020047
:104040000168002241F4800101600068002100F451
:104050008000019001983820FDF7EAFD382002B079
:10406000BDE88040FDF7D4BD70B586B0002643F6AC
:10407000300005960096C4F20200016841F6004443
:1040800041F0040101600168C4F2020401F004017E
:104090000091009900960168012241F02001016021
:1040A0000168012501F02001009100990096016846
:1040B00041F080010160016801F0800100910099E8
:1040C0000096016841F040010160016801F0400183
:1040D000009100990096016841F0010101600068BB
:1040E000802100F00100009000982046FDF71AFDA5
:1040F00020464FF400510022FDF714FD4FF402500A
:10410000CDE901050395032001AD04902046294621
:10411000FDF728FCC020CDE90106A4F58060294602
:104120000396FDF71FFC06B070BD000080B541F698
:10413000C81045F20001C2F20000C4F201014FF4C0
:104140008272002380E80E0000F114014FF4007C1D
:104150004FF0080E81E808500A21C0E90333C0E996
:104160000833C0E90A31FEF79DF8002808BF80BD7A
:10417000BDE88040FCF778BD80B586B02020009077
:1041800041F620200021C2F2000040F200424FF030
:10419000090C0591CDE903110191C4F2000242F22C
:1041A0002733C0E9021C01618021C0E9002381613D
:1041B000FEF76CFA002818BFFCF756FD4FF480504C
:1041C000029041F62020C2F2000002A9FEF7D8FAC0
:1041D000002818BFFCF748FD41F62020C2F200007D
:1041E0006946FEF7F7F9002818BFFCF73DFD06B059
:1041F00080BD000080B582B041F6602041F200022F
:104200000021C2F20000C4F200024CF25033CDE9AA
:104210000011C0E90021C0E9021380218161FEF78D
:1042200035FA002818BFFCF71FFD41F66020C2F2E6
:1042300000006946FEF7CEF9002818BFFCF714FD10
:1042400002B080BD80B541F6A02041F20001C2F26B
:104250000000C4F2010100234FF00C0C4FF4E132D6
:1042600080E80E00C0E90333C0E905C3C361FEF76F
:1042700051FD002808BF80BDBDE88040FCF7F4BCBC
:10428000FEE70000704700007047000070B582B084
:1042900040F22003C2F200031B6849F68176C1F2A6
:1042A0005E66A3FB06360446700D4FF47A735843DE
:1042B00001906068B0F5827F12D10E46216888684F
:1042C000000644D5701C3BD0154600BFFDF730FCFE
:1042D000411B2068B1423DD280680006F6D436E02A
:1042E0000198A0B301980138019020688068000609
:1042F0002DD5019858B30198013801902068806845
:10430000000624D5019810B3019801380190206867
:10431000806800061BD50198C8B10198013801904A
:10432000206880680006DBD4002002B070BD00BFAA
:10433000886800060BD5886800064FF00000F4D5A9
:104340008868000644BF88685FEA0060F0D40020F7
:1043500002B070BD416821F0E00141606168B1F5D3
:10436000827F0AD1A168B1F5004F02D0B1F5806F0C
:1043700003D1016821F040010160A16AB1F5005F3D
:1043800007D1016821F400510160016841F4005136
:104390000160012084F85100002084F85000606D15
:1043A00040F020006065032002B070BD704700003F
:1043B000FDF7C4BB4EF68850CEF20000016841F410
:1043C000700101604FF0006140F8801C70470000F0
:1043D00010B540F20804C2F200042046FEF720FEA9
:1043E0002046FEF77DFE41F66020C2F20000BDE8E7
:1043F0001040FEF791BA000010B540F6FF3E03688A
:10440000C4F2000E40F2004C7045C4F2010C27DCEF
:10441000B0F1804F31D040F20042C4F2000290422D
:104420002BD040F60002C4F20002904225D041F6A3
:10443000FF72C4F20002904229DC70453CDCB0F10E
:10444000804F5FD040F20042C4F20002904259D047
:1044500040F60002C4F20002904253D056E000BF82
:1044600040F60042C4F20002904206D0604504D0FB
:104470000022C4F201029042D9D14A6823F07003AD
:10448000134341F6FF72C4F200029042D5DD43F6B9
:10449000FF72C4F20102904222DC42F20002C4F236
:1044A000000290422ED00022C4F20102904229D094
:1044B000604527D02AE000BF40F60042C4F2000267
:1044C00090421FD041F60002C4F20002904219D07F
:1044D00041F60042C4F20002904213D016E000BF41
:1044E00044F20002C4F2010290420BD044F60002F2
:1044F000C4F20102904205D044F20042C4F201022B
:10450000904203D1CA6823F44073134323F080021E
:104510004B69D1F800E08C681A430260C46240F431
:104520008062C0F828E0624504BF09690163012187
:10453000416110BD806B0021C185C184FEF7ACBA1A
:10454000B0B50546006805F108030ECB04691943B0
:1045500024F44054224302616A69EB691143C26842
:1045600049F20C641943A2431143C1604169AA692D
:1045700021F440711143416141F20041B3F5004F14
:1045800040F48060C4F2010104D1884208D1FDF7F3
:104590008DFC07E0884229D1FDF788FC28E000BFA8
:1045A000FDF770FC6B681921A0FB01015A00DB0FBD
:1045B000FBF718FE48F21F51C5F2EB11A0FB0123D7
:1045C0005A096FF0630302FB0300322303EBC000C0
:1045D000A0FB01014FF4F87000EA111000EB02108B
:1045E000C1F34211084429688860B0BDFDF74AFC58
:1045F0006B681921A0FB01019A009B0FFBF7F2FDEC
:1046000048F21F51C5F2EB11A0FB01235A096FF0CC
:10461000630302FB0300322303EB0010A0FB010144
:10462000F02000EA511000EB0210C1F343110844DE
:1046300029688860B0BD000041F6A020C2F20000E9
:10464000FEF72CBAFEE7000010B504460420FDF783
:104650009BFF41F61C10C2F20000046010BD000078
:1046600070B590B341F61C11C2F2000109684FF415
:104670007A7251434EF21802431ECEF20002032B0F
:1046800000F0030C22D2BCF1000F1ED052F8040C33
:104690001668002308E000BF33445B1BAE4298BF9E
:1046A00003448B422E460DD21568AE42F4D11568F4
:1046B000AE42F1D11568AE42EED11568AE42F3D0EC
:1046C000EAE700BFBCF1010F78D170BD20F0030E06
:1046D000002302E004337345D5D052F8040C15686A
:1046E000002407E02C44A41BB54298BF04448C422C
:1046F00035460DD21668B542F4D11668B542F1D1EF
:104700001668B542EED11668B542F3D0EAE700BFAD
:1047100052F8040C1568002408E000BF2C44A41BC8
:10472000B54298BF04448C4235460DD21668B54256
:10473000F4D11668B542F1D11668B542EED11668CB
:10474000B542F3D0EAE700BF52F8040C1568002424
:1047500008E000BF2C44A41BB54298BF04448C421F
:1047600035460DD21668B542F4D11668B542F1D17E
:104770001668B542EED11668B542F3D0EAE700BF3D
:1047800052F8040C156800240AE000BF2C44A41B56
:10479000B54298BF04448C423546BFF49BAF00BF7E
:1047A0001668B542F2D11668B542EFD11668B54227
:1047B000ECD11668B542F3D0E8E700BF52F8040C1C
:1047C0001668002308E000BF33445B1BAE4298BF6D
:1047D00003448B422E460DD21568AE42F4D11568C3
:1047E000AE42F1D11568AE42EED11568AE42F3D0BB
:1047F000EAE700BFBCF1020F08BF70BD52F8040C1D
:10480000166800230AE000BF33445B1BAE4298BF2A
:1048100003448B422E46BFF458AF00BF1568AE422A
:10482000F2D11568AE42EFD11568AE42ECD11568F1
:10483000AE42F3D0E8E7000080B582B08DF8070003
:1048400041F6A020C2F200000DF10701012202236F
:10485000FEF718FB9DF8070002B080BD92B0FDF78F
:104860007BF94FF0000943F64000CDE90A99CDE904
:104870000899CDF80490C4F202000168022441F0C6
:1048800080510160006800F080500190019847F26B
:104890000000CDF80490C4F20000016841F44041EA
:1048A0000160006800F440400190019801200690EA
:1048B0004FF4803007904FF480000D9019200E9037
:1048C0004FF4B470CDE90F040420119006A80C94A5
:1048D000FDF736FBFDF7E8F90F2001A981E8110289
:1048E0004FF4A05004904FF48050059001A805218A
:1048F000FDF718FAFFF7B8FBFFF79AFBFFF716FC76
:10490000FFF75EFBFFF738FCFFF774FCFFF79AFC3C
:10491000B420FFF799FEFEF751FD4FF6FF77002018
:104920000021F022F0230097FEF724FD41F620201D
:10493000C2F20000FDF700FF41F66020C2F2000065
:10494000FDF70EFF40F20400C2F20000016941F6DB
:104950002010C2F2000040F60842FCF739FD40F298
:104960003407C2F2000741F6A020791CC2F2000011
:104970000122FEF73DFA0FF2B84000F0ADFA41F225
:104980008830FCF7DBFF47F2FC60C0F6000000F067
:1049900023FF4FF47A70FCF7D1FF40F2440047F256
:1049A000B271C2F20000C0F60001FBF770FC0028F3
:1049B000F86000F07781B978B94629B140F2440037
:1049C000C2F20000FBF758FC00270FF2804089F884
:1049D000027000F081FA4FF47A70FCF7AFFF0FF22B
:1049E0007C4000F0F9FE4FF47A70FCF7A7FF40F22C
:1049F0004400C2F200000FF27441FBF748FC0028AB
:104A0000C9F80C0000F0828199F8021029B140F237
:104A10004400C2F20000FBF72FFC00270FF2844095
:104A200089F8027000F058FA4FF47A70FCF786FFAC
:104A300047F25560C0F6000000F0CEFE4FF4FA7069
:104A4000FCF77CFF40F2440047F22371C2F2000001
:104A5000C0F60001FBF71BFC0028C9F80C0000F0B1
:104A6000818199F8021029B140F24400C2F200009D
:104A7000FBF702FC00270FF24C4089F8027000F0AF
:104A80002BFA4FF4FA70FCF759FF47F29D60C0F61D
:104A9000000000F0A1FE4FF47A70FCF74FFF40F2E7
:104AA000440047F21371C2F20000C0F60001FBF7A8
:104AB000EEFB0028C9F80C0000F0868199F802107E
:104AC00029B140F24400C2F20000FBF7D5FB002000
:104AD00089F8020047F2BA70C0F6000000F0FCF955
:104AE0004FF4FA60FCF72AFF47F2BC60C0F6000002
:104AF00000F072FE4FF47A70FCF720FF99F8021074
:104B000029B140F24400C2F20000FBF7B5FB41F6C8
:104B1000E02B4FF6C06A4FF6E8684FF648674FF64D
:104B200070654FF698660020C2F2000BCFF6FF7A50
:104B3000CFF6FF78CFF6FF77CFF6FF75CFF6FF768B
:104B400089F8020003E000BF002089F8000099F80E
:104B500000000128FBD140F20409C2F20009D9F893
:104B60000C00FCF785F8D9F80C1099EC020A44F611
:104B70003840C2F20000FBF73BFFD9F80C004FF6BB
:104B8000F85C4FF6206400F22E200021CFF6FF7C67
:104B9000CFF6FF7430F80C200BEB01032BF801204B
:104BA000025B1C315A80C25BB1F59A7F9A80425BEE
:104BB000DA80825B1A8130F80A205A8130F80820A6
:104BC0009A8130F8F02CDA8130F8C82C1A8230F84B
:104BD000A02C5A8230F8782C9A8230F8502CDA8245
:104BE00030F8282C1A83028800F50C705A83D1D132
:104BF00040F23409BBF80000C2F20009B9F806100F
:104C0000C0B347F23570C0F6000000F065F947F216
:104C1000AF74BBF80010C0F60004204600F05CF949
:104C20004FF001092C2000F0D1FD3BF8191020466F
:104C300000F052F909F10109B9F19A0FF2D147F2E6
:104C40009760C0F6000000F0C7FD40F23409C2F2E0
:104C5000000999F8021029B140F24400C2F20000A4
:104C6000FBF70AFBB9F80600002189F80210411C85
:104C7000A9F8061088B209287FF466AF0020A9F8C9
:104C8000060047F2D460C0F6000000F0A5FD4FF426
:104C9000FA70FFF7E5FC47F20170C0F6000000F083
:104CA0009BFD51E747F2FC6540F2440647F2B274BF
:104CB0000FF28818C0F60005C2F20006C0F6000424
:104CC0001CE000BF40F23407C2F20007404687F8FC
:104CD000029000F001F94FF47A70FCF72FFE28469D
:104CE00000F07AFD4FF47A70FCF728FE304621463A
:104CF000FBF7CDFA0028F8607FF45DAEB9780029A3
:104D0000E0D03046FBF7B8FADCE700BF40F24406DB
:104D10000FF264185CA5C2F200065FA419E000BFA0
:104D2000404689F8027000F0D7F84FF47A70FCF72B
:104D300005FE284600F050FD4FF47A70FCF7FEFDAA
:104D400030462146FBF7A3FA0028C9F80C007FF48F
:104D50005BAE99F802100029E2D03046FBF78CFADE
:104D6000DEE700BF47F2556540F2440647F2237480
:104D70000FF23C18C0F60005C2F20006C0F60004AF
:104D800019E000BF404689F8027000F0A5F84FF422
:104D9000FA70FCF7D3FD284600F01EFD4FF4FA70C0
:104DA000FCF7CCFD30462146FBF771FA0028C9F824
:104DB0000C007FF456AE99F802100029E2D030467C
:104DC000FBF75AFADEE700BF47F2C37847F29D656A
:104DD00040F2440647F21374C0F60008C0F600051E
:104DE000C2F20006C0F6000419E000BF404689F890
:104DF000027000F071F84FF4FA60FCF79FFD28464E
:104E000000F0EAFC4FF4FA60FCF798FD30462146CA
:104E1000FBF73DFA0028C9F80C007FF44FAE99F873
:104E200002100029E2D03046FBF726FADEE700BF89
:104E3000C4A3BFE9B3F5CABCBBAF0000B2E9D1AFB0
:104E4000D0C5CFA2CAA7B0DC00000000B0E6B1BE5A
:104E5000D0C5CFA2D5FDC8B70000000041542B4DEE
:104E6000495043414C4C3F0D000000002B4D495030
:104E700043414C4C3A203100BBB9CEB4BBF1C8A180
:104E8000B5BD49500000000041542B4D49504341ED
:104E90004C4C3D310D0000002B4D495043414C4CD2
:104EA0003A200000BBF1C8A14950B3C9B9A600001F
:104EB000C6BDCCA8D0C5CFA2C9E8D6C3CAA7B0DCAE
:104EC00000000000C6BDCCA8D0C5CFA2C9E8D6C39B
:104ED000B3C9B9A6000000000FB4054B10B503A973
:104EE000044A029800F0DAF810BC5DF814FB0000E8
:104EF000394800080000002002E008C8121F08C15D
:104F0000002AFAD170477047002001E001C1121F4A
:104F1000002AFBD1704700002DE9FF5F82B000211D
:104F2000DDE90430020DDDF840B0034318D044F64B
:104F30001050A2F2FF3242431514119801281FD0DD
:104F4000A5EB0B00401C5FEA000A4FF000064E4F35
:104F5000DFF83891B046504615D5CAF1000413E089
:104F6000119801244AA3012801D16FEA0B0102988C
:104F7000119AC0E90031C0E9024206B0BDE8F09FD5
:104F8000CBF10000DFE704460021404A491842EB1C
:104F90000450CDE9001012E0E00707D032463B464E
:104FA00040464946FBF72CFA8046894632463B4646
:104FB00010461946FBF724FA06460F466410002CEB
:104FC000EAD1DDE90401DDE90023BAF1000F06DAD8
:104FD000FBF716FA42464B46FBF712FA05E0FBF7E1
:104FE00081FA42464B46FBF77DFA04460E46002204
:104FF000284BFBF715FC03D84FF0FF30014607E0C4
:105000000022254B20463146FBF753F9FBF7F0FB16
:10501000102409E0002C0ADB0A220023FBF7E2F847
:10502000039B30321A55641E50EA0102F2D1641C0F
:10503000039AC4F111031444119A012A03D00122E6
:1050400008430DD10AE0084304D000204FF0110BB3
:10505000119072E7A3EB0B056D1E0DE05B4504DDBF
:105060004FF0000205F1010504E003DA4FF0000201
:10507000A5F10105002AECD002981199C0E902318E
:10508000C0E9004579E70000000014400000F03F4F
:10509000300000000000F0430000E03F2DE9FF4F2A
:1050A00095B09B468946064600250FE2252877D114
:1050B00000242746F84A0121059400E0044316F82D
:1050C000013F203B01FA03F01042F7D130782A2843
:1050D00011D06FF02F033078A0F13002092A16D8D2
:1050E000059A44F0020402EB820203EB42021044F0
:1050F000761C0590EFE759F8042B0592002A03DA95
:10510000504244F40054059044F00204761C307878
:105110002E2816D116F8010F44F004042A280DD0C9
:105120006FF02F023078A0F13003092B09D807EB7C
:10513000870302EB4303C718761CF3E759F8047B97
:10514000761C30786C280FD006DC4C2817D06828E5
:105150000DD06A2814D104E0742810D07A280FD119
:105160000DE044F400140AE044F4801401E044F437
:1051700040147278824202D104F58014761C761CA9
:10518000307866280BD013DC582877D009DC00284B
:1051900075D04528F6D04628F4D047281AD19DE18D
:1051A00018E0632835D0642879D0652812D195E1BC
:1051B000702873D008DC6728F1D069286FD06E287A
:1051C0000DD06F2806D1B5E073282CD0752875D086
:1051D000782874D05A46179990476D1C75E1C4F32E
:1051E0000250022809D003280DD0D9F80010042855
:1051F0000DD00D6009F1040967E1D9F80010EA1734
:10520000C1E90052F6E7D9F800100D80F2E70D7001
:10521000F0E719F8041B8DF8001000208DF801004C
:10522000EA46012003E059F804AB4FF0FF30610774
:105230004FF0000102D40DE008F101018846B942A7
:105240000FDA8045F8DB1AF808100029F4D108E0DD
:1052500008F1010188468142FADB1AF8081000299A
:10526000F6D105985B46A0EB080721463846179A09
:1052700000F094FA284400EB080507E04DE029E12E
:105280000DE01AF8010B5A4617999047B8F101083A
:10529000F7D25B4621463846179A13E142E00A22CC
:1052A0000092C4F302524FF0000A022A08D059F8C3
:1052B00004CB032A4FEAEC710AD00DE029E02AE082
:1052C00009F1070121F00702F2E802C1914609E065
:1052D0000FFA8CFC4FEAEC71042A03D14FFA8CFCD4
:1052E0004FEAEC71002907DA0A460021DCF1000CD4
:1052F00061EB02012D2202E0220504D52B228DF85C
:105300000420012203E0E20701D02022F7E79046C3
:1053100059E00A2102E010220DE010214FF0000AAE
:1053200000910BE010224FF0000A44F0040408271B
:10533000009203E008224FF0000A0092C4F30252E8
:10534000022A05D059F804CB0021032A08D009E02D
:1053500009F1070121F00702F2E802C1914605E0D8
:105360001FFA8CFC042A01D10CF0FF0C4FF000084E
:10537000220728D5702806D0009B83F0100353EA3B
:105380000A0305D00EE040228DF80420012208E037
:105390005CEA010206D030228DF804208DF8050069
:1053A00002229046009B83F0080353EA0A030AD1C5
:1053B0005CEA010201D1620705D530228DF8042094
:1053C0004FF001087F1E582804D034A003900EA887
:1053D00002900DE036A0F9E753466046009AFAF7CE
:1053E00001FF84460398825C0298401E029002707E
:1053F0005CEA0100F0D1029806A9081A00F1200A1F
:10540000600702D524F4803400E00127574502DD0F
:10541000A7EB0A0000E0002000EB0A0100900598CD
:105420004144401A0590E00306D45B462146179A92
:10543000059800F0B3F90544002706E001A85A4694
:10544000C05D179990476D1C7F1C4745F6DBE00354
:105450000CD55B462146179A059800F09FF9054444
:1054600004E030205A46179990476D1C0099481E59
:1054700000900029F5DC08E0029802995A4600786D
:10548000491C0291179990476D1CBAF10001AAF1CD
:10549000010AF1DC65E100000928010030313233F6
:1054A0003435363738396162636465660000000060
:1054B000303132333435363738394142434445464A
:1054C0000000000000F058F90544761C30780028F0
:1054D0007FF4ECAD19B02846BDE8F08F620700D428
:1054E000062709F1070222F0070CFCE80223E14637
:1054F00003F000485FEA080C02D00FF2702C0DE0B8
:105500005FEA045C02D50FF2682C07E05FEAC47C16
:1055100002D00FF2602C01E0AFF2700C4FF0FF38B8
:1055200023F00043CDF850C065280CD006DC452898
:1055300009D046281DD047283DD13DE0662818D027
:1055400067287ED138E00021112F01DB112000E017
:10555000781CCDE9000106A90EA8FFF7DDFCDDE906
:105560000F010E9A03910021009207F1010A0491A4
:105570004DE04FF000400097CDE9011006A90EA8BC
:10558000FFF7CAFCDDE90F0203920E9B119900227E
:10559000DDF80CA00093049211B9791C00EB010A0C
:1055A000B7EB0A0004D4C0F1FF3007F1010A049000
:1055B000AAEB0700019044E0012F00DA0127002147
:1055C000112F01DD112000E03846CDE9000106A9C8
:1055D0000EA8FFF7A1FCDDE90F010E9A039100214F
:1055E00004910092BA4621070CD40399514500DA80
:1055F0008A46BAF1010F05DD009AAAF10101515C5A
:10560000302908D0B84202DA10F1040F06DA01217D
:10561000CDE9011015E0AAF10101E9E7002805DC58
:10562000049901440491AAEB000102E0411C514598
:1056300000DD8A460499401A401C01904FF000405A
:105640000290200704D40198504501DBCDF8048076
:1056500000208DF84F0002980DF14F07B0F1004F78
:1056600025D02B200E9002984FF0020800280CDA6B
:10567000404202902D200E9007E00A210298FAF78E
:10568000DCFF3031029007F8011DB8F10001A8F1EC
:105690000108F2DC02980028EFD1791E0E980870FC
:1056A000307800F0200040F0450007F8020D12A805
:1056B000C01B00F107081498007800B1012000EB2E
:1056C0000A01019801EBE07105984144401A401E1F
:1056D0000590E00306D45B462146179A059800F032
:1056E0005DF805441498007818B15A461799904708
:1056F0006D1CE00324D55B462146179A059800F0FF
:105700004DF805441CE00498002807DBDDE903019F
:10571000884203DD0098405C179901E0179930201A
:105720005A469047049805F10105401C04900198E1
:10573000401E019004D12E205A46179990476D1CA7
:10574000BAF10001AAF1010ADDDC05E017F8010B4E
:105750005A46179990476D1CB8F10001A8F101084D
:10576000F4DC5B462146179A0598ABE62D00000055
:105770002B000000200000002DE9F0410446002528
:105780001E461746880404D405E039462020B04759
:105790006D1C641EF9D52846BDE8F0812DE9F04165
:1057A000044600251E469046C80301D5302700E078
:1057B0002027880404D505E041463846B0476D1CD3
:1057C000641EF9D52846BDE8F08100000149FFF7C5
:1057D00033B800000000002010B5044601E0FFF7D8
:1057E0002BF814F8010B04490028F8D1BDE810404B
:1057F0000A20FFF721B80000000000200000000090
:105800000000000001020304060708090000000070
:10581000010203040000000000000000000000007E
:105820000000000000000008080808080808000040
:105830001818000000486C2412000000000000004E
:10584000000000000000002424247F1212127F12A6
:10585000121200000000081C2A2A0A0C1828282A04
:105860002A1C080800000022251515152A58545432
:10587000542200000000000C1212120A7625291191
:10588000916E000000060604030000000000000006
:105890000000000000402010100808080808081048
:1058A000102040000002040808101010101010080A
:1058B000080402000000000008086B1C1C6B0808AC
:1058C0000000000000000000080808087F08080821
:1058D00008000000000000000000000000000000C0
:1058E000060604030000000000000000FE000000A7
:1058F00000000000000000000000000000000000A8
:105900000606000000008040402020101008080417
:105910000402020000000018244242424242424275
:1059200024180000000000080E08080808080808ED
:10593000083E00000000003C4242422020100804C3
:10594000427E00000000003C4242201820404042BD
:10595000221C0000000000203028242422227E2067
:10596000207800000000007E0202021A2640404219
:10597000221C0000000000382402021A2642424283
:10598000241800000000007E2222101008080808D9
:10599000080800000000003C424242241824424211
:1059A000423C00000000001824424242645840403B
:1059B000241C000000000000000018180000000077
:1059C000181800000000000000000008000000009F
:1059D0000008080400000040201008040204081019
:1059E000204000000000000000007F0000007F0059
:1059F00000000000000000020408102040201008F1
:105A0000040200000000003C42424640201010000A
:105A1000181800000000001C225A555555552D42FB
:105A2000221C00000000000808181414243C224224
:105A300042E700000000001F2222221E22424242B2
:105A4000221F00000000007C4242010101010142CE
:105A5000221C00000000001F2242424242424242F9
:105A6000221F00000000003F4212121E12120242CA
:105A7000423F00000000003F4212121E12120202BA
:105A8000020700000000003C2222010101712122D6
:105A9000221C0000000000E7424242427E42424295
:105AA00042E700000000003E08080808080808084F
:105AB000083E00000000007C1010101010101010A4
:105AC0001010110F0000007722120A0E0A12122283
:105AD0002277000000000007020202020202020216
